{"contracts/HeightsToken.sol":{"HeightsToken":{"abi":[{"inputs":[{"internalType":"address","name":"_feeRecipient","type":"address"}],"stateMutability":"nonpayable","type":"constructor"},{"inputs":[{"internalType":"address","name":"account","type":"address"}],"name":"BotDetectedError","type":"error"},{"inputs":[{"internalType":"address","name":"spender","type":"address"},{"internalType":"uint256","name":"allowance","type":"uint256"},{"internalType":"uint256","name":"needed","type":"uint256"}],"name":"ERC20InsufficientAllowance","type":"error"},{"inputs":[{"internalType":"address","name":"sender","type":"address"},{"internalType":"uint256","name":"balance","type":"uint256"},{"internalType":"uint256","name":"needed","type":"uint256"}],"name":"ERC20InsufficientBalance","type":"error"},{"inputs":[{"internalType":"address","name":"approver","type":"address"}],"name":"ERC20InvalidApprover","type":"error"},{"inputs":[{"internalType":"address","name":"receiver","type":"address"}],"name":"ERC20InvalidReceiver","type":"error"},{"inputs":[{"internalType":"address","name":"sender","type":"address"}],"name":"ERC20InvalidSender","type":"error"},{"inputs":[{"internalType":"address","name":"spender","type":"address"}],"name":"ERC20InvalidSpender","type":"error"},{"inputs":[],"name":"EnforcedPause","type":"error"},{"inputs":[{"internalType":"uint256","name":"requestedAmount","type":"uint256"},{"internalType":"uint256","name":"maxSupply","type":"uint256"}],"name":"ExceedsMaxSupply","type":"error"},{"inputs":[{"internalType":"uint256","name":"amount","type":"uint256"},{"internalType":"uint256","name":"limit","type":"uint256"}],"name":"ExceedsMaxTransactionAmount","type":"error"},{"inputs":[{"internalType":"address","name":"account","type":"address"},{"internalType":"uint256","name":"amount","type":"uint256"},{"internalType":"uint256","name":"limit","type":"uint256"}],"name":"ExceedsMaxWalletAmount","type":"error"},{"inputs":[],"name":"ExpectedPause","type":"error"},{"inputs":[{"internalType":"address","name":"account","type":"address"},{"internalType":"uint256","name":"requested","type":"uint256"},{"internalType":"uint256","name":"available","type":"uint256"}],"name":"InsufficientBalance","type":"error"},{"inputs":[{"internalType":"uint256","name":"fee","type":"uint256"},{"internalType":"uint256","name":"maxFee","type":"uint256"}],"name":"InvalidFeeAmount","type":"error"},{"inputs":[{"internalType":"address","name":"owner","type":"address"}],"name":"OwnableInvalidOwner","type":"error"},{"inputs":[{"internalType":"address","name":"account","type":"address"}],"name":"OwnableUnauthorizedAccount","type":"error"},{"inputs":[],"name":"ReentrancyGuardReentrantCall","type":"error"},{"inputs":[],"name":"SameBlockTransaction","type":"error"},{"inputs":[],"name":"TradingNotEnabled","type":"error"},{"inputs":[],"name":"ZeroAddress","type":"error"},{"anonymous":false,"inputs":[{"indexed":false,"internalType":"uint256","name":"maxWallet","type":"uint256"},{"indexed":false,"internalType":"uint256","name":"maxTransaction","type":"uint256"}],"name":"AntiWhaleConfigUpdated","type":"event"},{"anonymous":false,"inputs":[{"indexed":true,"internalType":"address","name":"owner","type":"address"},{"indexed":true,"internalType":"address","name":"spender","type":"address"},{"indexed":false,"internalType":"uint256","name":"value","type":"uint256"}],"name":"Approval","type":"event"},{"anonymous":false,"inputs":[{"indexed":true,"internalType":"address","name":"account","type":"address"},{"indexed":false,"internalType":"uint256","name":"timestamp","type":"uint256"}],"name":"BotDetected","type":"event"},{"anonymous":false,"inputs":[{"indexed":true,"internalType":"address","name":"account","type":"address"},{"indexed":false,"internalType":"bool","name":"isBot","type":"bool"}],"name":"BotStatusUpdated","type":"event"},{"anonymous":false,"inputs":[{"indexed":true,"internalType":"address","name":"account","type":"address"},{"indexed":false,"internalType":"bool","name":"isExempt","type":"bool"},{"indexed":false,"internalType":"string","name":"exemptionType","type":"string"}],"name":"ExemptionUpdated","type":"event"},{"anonymous":false,"inputs":[{"indexed":true,"internalType":"address","name":"newRecipient","type":"address"}],"name":"FeeRecipientUpdated","type":"event"},{"anonymous":false,"inputs":[{"indexed":false,"internalType":"uint256","name":"buyFee","type":"uint256"},{"indexed":false,"internalType":"uint256","name":"sellFee","type":"uint256"},{"indexed":false,"internalType":"uint256","name":"transferFee","type":"uint256"}],"name":"FeesUpdated","type":"event"},{"anonymous":false,"inputs":[{"indexed":true,"internalType":"address","name":"previousOwner","type":"address"},{"indexed":true,"internalType":"address","name":"newOwner","type":"address"}],"name":"OwnershipTransferred","type":"event"},{"anonymous":false,"inputs":[{"indexed":false,"internalType":"address","name":"account","type":"address"}],"name":"Paused","type":"event"},{"anonymous":false,"inputs":[{"indexed":false,"internalType":"uint256","name":"timestamp","type":"uint256"}],"name":"TradingEnabled","type":"event"},{"anonymous":false,"inputs":[{"indexed":true,"internalType":"address","name":"from","type":"address"},{"indexed":true,"internalType":"address","name":"to","type":"address"},{"indexed":false,"internalType":"uint256","name":"value","type":"uint256"}],"name":"Transfer","type":"event"},{"anonymous":false,"inputs":[{"indexed":false,"internalType":"address","name":"account","type":"address"}],"name":"Unpaused","type":"event"},{"stateMutability":"payable","type":"fallback"},{"inputs":[],"name":"SNIPE_PROTECTION_DURATION","outputs":[{"internalType":"uint256","name":"","type":"uint256"}],"stateMutability":"view","type":"function"},{"inputs":[{"internalType":"address","name":"owner","type":"address"},{"internalType":"address","name":"spender","type":"address"}],"name":"allowance","outputs":[{"internalType":"uint256","name":"","type":"uint256"}],"stateMutability":"view","type":"function"},{"inputs":[{"internalType":"address","name":"spender","type":"address"},{"internalType":"uint256","name":"value","type":"uint256"}],"name":"approve","outputs":[{"internalType":"bool","name":"","type":"bool"}],"stateMutability":"nonpayable","type":"function"},{"inputs":[{"internalType":"address","name":"account","type":"address"}],"name":"balanceOf","outputs":[{"internalType":"uint256","name":"","type":"uint256"}],"stateMutability":"view","type":"function"},{"inputs":[{"internalType":"uint256","name":"value","type":"uint256"}],"name":"burn","outputs":[],"stateMutability":"nonpayable","type":"function"},{"inputs":[{"internalType":"address","name":"account","type":"address"},{"internalType":"uint256","name":"amount","type":"uint256"}],"name":"burnFrom","outputs":[],"stateMutability":"nonpayable","type":"function"},{"inputs":[],"name":"buyFee","outputs":[{"internalType":"uint256","name":"","type":"uint256"}],"stateMutability":"view","type":"function"},{"inputs":[{"internalType":"address","name":"from","type":"address"},{"internalType":"address","name":"to","type":"address"},{"internalType":"uint256","name":"amount","type":"uint256"}],"name":"canTransact","outputs":[{"internalType":"bool","name":"","type":"bool"},{"internalType":"string","name":"","type":"string"}],"stateMutability":"view","type":"function"},{"inputs":[],"name":"decimals","outputs":[{"internalType":"uint8","name":"","type":"uint8"}],"stateMutability":"view","type":"function"},{"inputs":[{"internalType":"address","name":"token","type":"address"},{"internalType":"uint256","name":"amount","type":"uint256"}],"name":"emergencyWithdraw","outputs":[],"stateMutability":"nonpayable","type":"function"},{"inputs":[],"name":"enableTrading","outputs":[],"stateMutability":"nonpayable","type":"function"},{"inputs":[],"name":"feeRecipient","outputs":[{"internalType":"address","name":"","type":"address"}],"stateMutability":"view","type":"function"},{"inputs":[],"name":"getTokenInfo","outputs":[{"internalType":"uint256","name":"_totalSupply","type":"uint256"},{"internalType":"uint256","name":"_maxSupply","type":"uint256"},{"internalType":"uint256","name":"_maxWalletAmount","type":"uint256"},{"internalType":"uint256","name":"_maxTransactionAmount","type":"uint256"},{"internalType":"uint256","name":"_buyFee","type":"uint256"},{"internalType":"uint256","name":"_sellFee","type":"uint256"},{"internalType":"uint256","name":"_transferFee","type":"uint256"},{"internalType":"address","name":"_feeRecipient","type":"address"},{"internalType":"bool","name":"_tradingEnabled","type":"bool"},{"internalType":"uint256","name":"_launchTime","type":"uint256"}],"stateMutability":"view","type":"function"},{"inputs":[{"internalType":"address","name":"","type":"address"}],"name":"isAuthorizedTransactor","outputs":[{"internalType":"bool","name":"","type":"bool"}],"stateMutability":"view","type":"function"},{"inputs":[{"internalType":"address","name":"","type":"address"}],"name":"isBot","outputs":[{"internalType":"bool","name":"","type":"bool"}],"stateMutability":"view","type":"function"},{"inputs":[{"internalType":"address","name":"","type":"address"}],"name":"isExchange","outputs":[{"internalType":"bool","name":"","type":"bool"}],"stateMutability":"view","type":"function"},{"inputs":[{"internalType":"address","name":"","type":"address"}],"name":"isExemptFromFees","outputs":[{"internalType":"bool","name":"","type":"bool"}],"stateMutability":"view","type":"function"},{"inputs":[{"internalType":"address","name":"","type":"address"}],"name":"isExemptFromLimits","outputs":[{"internalType":"bool","name":"","type":"bool"}],"stateMutability":"view","type":"function"},{"inputs":[],"name":"launchTime","outputs":[{"internalType":"uint256","name":"","type":"uint256"}],"stateMutability":"view","type":"function"},{"inputs":[],"name":"maxTransactionAmount","outputs":[{"internalType":"uint256","name":"","type":"uint256"}],"stateMutability":"view","type":"function"},{"inputs":[],"name":"maxWalletAmount","outputs":[{"internalType":"uint256","name":"","type":"uint256"}],"stateMutability":"view","type":"function"},{"inputs":[{"internalType":"address","name":"to","type":"address"},{"internalType":"uint256","name":"amount","type":"uint256"}],"name":"mint","outputs":[],"stateMutability":"nonpayable","type":"function"},{"inputs":[],"name":"name","outputs":[{"internalType":"string","name":"","type":"string"}],"stateMutability":"view","type":"function"},{"inputs":[],"name":"owner","outputs":[{"internalType":"address","name":"","type":"address"}],"stateMutability":"view","type":"function"},{"inputs":[],"name":"pause","outputs":[],"stateMutability":"nonpayable","type":"function"},{"inputs":[],"name":"paused","outputs":[{"internalType":"bool","name":"","type":"bool"}],"stateMutability":"view","type":"function"},{"inputs":[],"name":"renounceOwnership","outputs":[],"stateMutability":"nonpayable","type":"function"},{"inputs":[],"name":"sellFee","outputs":[{"internalType":"uint256","name":"","type":"uint256"}],"stateMutability":"view","type":"function"},{"inputs":[{"internalType":"address","name":"account","type":"address"},{"internalType":"bool","name":"authorized","type":"bool"}],"name":"setAuthorizedTransactor","outputs":[],"stateMutability":"nonpayable","type":"function"},{"inputs":[{"internalType":"address","name":"account","type":"address"},{"internalType":"bool","name":"_isBot","type":"bool"}],"name":"setBotStatus","outputs":[],"stateMutability":"nonpayable","type":"function"},{"inputs":[{"internalType":"address[]","name":"accounts","type":"address[]"},{"internalType":"bool","name":"_isBot","type":"bool"}],"name":"setBotStatusBatch","outputs":[],"stateMutability":"nonpayable","type":"function"},{"inputs":[{"internalType":"address","name":"account","type":"address"},{"internalType":"bool","name":"_isExchange","type":"bool"}],"name":"setExchangeStatus","outputs":[],"stateMutability":"nonpayable","type":"function"},{"inputs":[{"internalType":"address","name":"account","type":"address"},{"internalType":"bool","name":"exempt","type":"bool"}],"name":"setFeeExemption","outputs":[],"stateMutability":"nonpayable","type":"function"},{"inputs":[{"internalType":"address","name":"account","type":"address"},{"internalType":"bool","name":"exempt","type":"bool"}],"name":"setLimitExemption","outputs":[],"stateMutability":"nonpayable","type":"function"},{"inputs":[],"name":"symbol","outputs":[{"internalType":"string","name":"","type":"string"}],"stateMutability":"view","type":"function"},{"inputs":[],"name":"totalSupply","outputs":[{"internalType":"uint256","name":"","type":"uint256"}],"stateMutability":"view","type":"function"},{"inputs":[],"name":"tradingEnabled","outputs":[{"internalType":"bool","name":"","type":"bool"}],"stateMutability":"view","type":"function"},{"inputs":[{"internalType":"address","name":"to","type":"address"},{"internalType":"uint256","name":"amount","type":"uint256"}],"name":"transfer","outputs":[{"internalType":"bool","name":"","type":"bool"}],"stateMutability":"nonpayable","type":"function"},{"inputs":[],"name":"transferFee","outputs":[{"internalType":"uint256","name":"","type":"uint256"}],"stateMutability":"view","type":"function"},{"inputs":[{"internalType":"address","name":"from","type":"address"},{"internalType":"address","name":"to","type":"address"},{"internalType":"uint256","name":"amount","type":"uint256"}],"name":"transferFrom","outputs":[{"internalType":"bool","name":"","type":"bool"}],"stateMutability":"nonpayable","type":"function"},{"inputs":[{"internalType":"address","name":"newOwner","type":"address"}],"name":"transferOwnership","outputs":[],"stateMutability":"nonpayable","type":"function"},{"inputs":[],"name":"unpause","outputs":[],"stateMutability":"nonpayable","type":"function"},{"inputs":[{"internalType":"uint256","name":"_maxWalletAmount","type":"uint256"},{"internalType":"uint256","name":"_maxTransactionAmount","type":"uint256"}],"name":"updateAntiWhaleConfig","outputs":[],"stateMutability":"nonpayable","type":"function"},{"inputs":[{"internalType":"address","name":"_feeRecipient","type":"address"}],"name":"updateFeeRecipient","outputs":[],"stateMutability":"nonpayable","type":"function"},{"inputs":[{"internalType":"uint256","name":"_buyFee","type":"uint256"},{"internalType":"uint256","name":"_sellFee","type":"uint256"},{"internalType":"uint256","name":"_transferFee","type":"uint256"}],"name":"updateFees","outputs":[],"stateMutability":"nonpayable","type":"function"},{"stateMutability":"payable","type":"receive"}],"evm":{"bytecode":{"linkReferences":{},"object":"6080346200052f57601f1990601f6200260f3881900382810185168401936001600160401b03929091838611838710176200043357808392604097885283396020928391810103126200052f57516001600160a01b038082169390918490036200052f576200006d62000534565b94600d86526c2432b4b3b43a39902a37b5b2b760991b848701526200009162000534565b90600391828152621211d560ea1b868201528751848111620004335783546001998a82811c9216801562000524575b898310146200050e578185849311620004b8575b508890858311600114620004555760009262000449575b505060001982861b1c191690891b1783555b805193841162000433576004998a548981811c9116801562000428575b888210146200041357908184879695949311620003b7575b50879285116001146200034f575060009362000343575b505082871b92600019911b1c19161786555b33156200032c5760058054610100600160a81b0319811633600881811b610100600160a81b03169290921790935587519391901c167f8be0079c531659141344cd1fd0a4f28419497f9722a3daafe3b4186f6b6457e0600080a3836006556a108b2a2c280290940000006007556a084595161401484a0000006008556032600c556050600d55601e600e5560ff1990816014541660145583156200031e5750600f80546001600160a01b03191684179055426009556200021a62000554565b6200022462000554565b600254936b033b2e3c9fd0803ce80000009485810180911162000309576000959697506002553385528483528685208681540190558651938685527fddf252ad1be2c89b69c2b068fc378daa952ba7f163c4a11628f55a4df523b3ef948686863393a333865260108452878620828482541617905530865287862082848254161790558086528786208284825416179055338652601184528786208284825416179055308652878620828482541617905585528685208183825416179055338552601283528685209182541617905584519384523393a35161209b9081620005748239f35b601188634e487b7160e01b6000525260246000fd5b63d92e233d60e01b81528690fd5b8451631e4fbdf760e01b8152600081880152602490fd5b01519150388062000149565b89959392919316928b600052876000209360005b89828210620003a0575050851162000385575b50505050811b0186556200015b565b01519060f884600019921b161c191690553880808062000376565b8385015187558c9890960195938401930162000363565b9091929394508b600052876000208480880160051c8201928a891062000409575b918c91899897969594930160051c01915b828110620003f957505062000132565b600081558897508c9101620003e9565b92508192620003d8565b60228c634e487b7160e01b6000525260246000fd5b90607f16906200011a565b634e487b7160e01b600052604160045260246000fd5b015190503880620000eb565b908d8c941691876000528a6000209260005b8c828210620004a1575050841162000488575b505050811b018355620000fd565b015160001983881b60f8161c191690553880806200047a565b8385015186558f9790950194938401930162000467565b90915085600052886000208580850160051c8201928b861062000504575b918d91869594930160051c01915b828110620004f4575050620000d4565b600081558594508d9101620004e4565b92508192620004d6565b634e487b7160e01b600052602260045260246000fd5b91607f1691620000c0565b600080fd5b60408051919082016001600160401b038111838210176200043357604052565b60ff600554166200056157565b60405163d93c066560e01b8152600490fdfe608060408181526004918236101561001f575b505050361561001d57005b005b600092833560e01c91826236d2d3146115f15750816306fdde03146114fc578163095ea7b3146114d257816318160ddd146114b357816322429085146113c957816323b872dd146112e857816324fff6c9146112505781632b14ca5614611231578163313ce567146112155781633bbac579146111d75781633f4ba83a1461116d57816340c10f191461109b57816342966c681461107d5781634463c1b214610fe85781634690484014610fbf5781634706240214610fa05781634ada218b14610f7c578163541fcfc814610f5f5781635582b4ab14610ded5781635c975abb14610dc957816360fd098914610d8b57816365a0f02114610cf157816370a0823114610cba578163715018a614610c59578163751fd17914610bc6578163790ca41314610ba757816379b40d6314610b7057816379cc679014610a9c5781638456cb5914610a415781638a8c523c1461099c5781638da5cb5b1461096f57816395ccea67146107f757816395d89b41146106d9578163a9059cbb146106a8578163a9b06fa7146105ba578163aa4bde281461059b578163abb1dc4414610517578163acb2ad6f146104f8578163b3d618db1461042a578163c8c8ebe41461040b578163cd2c6a99146103cd578163dd62ed3e14610379578163f160d369146102fe578163f2fde38b1461025d575063f6e1bfd81461021d5780610012565b346102595760203660031901126102595760209160ff9082906001600160a01b0361024661162c565b1681526012855220541690519015158152f35b5080fd5b9050346102fa5760203660031901126102fa5761027861162c565b6102806116cb565b6001600160a01b038181169390929084156102e457505060058054610100600160a81b03198116600893841b610100600160a81b031617909155901c167f8be0079c531659141344cd1fd0a4f28419497f9722a3daafe3b4186f6b6457e08380a380f35b51631e4fbdf760e01b8152908101859052602490fd5b8280fd5b9050346102fa5760203660031901126102fa5761031961162c565b6103216116cb565b6001600160a01b031691821561036c575050600f80546001600160a01b031916821790557f7a7b5a0a132f9e0581eb8527f66eae9ee89c2a3e79d4ac7e41a1f1f4d48a7fc28280a280f35b5163d92e233d60e01b8152fd5b50503461025957806003193601126102595761039361162c565b6001600160a01b0360243581811692908390036103c9579160209491849316825260018552828220908252845220549051908152f35b8480fd5b5050346102595760203660031901126102595760209160ff9082906001600160a01b036103f861162c565b1681526011855220541690519015158152f35b5050346102595781600319360112610259576020906008549051908152f35b919050346102fa57806003193601126102fa5761044561162c565b9061044e6116bc565b916104576116cb565b6001600160a01b03169283156104ea57507f066e0c23b9ae0bb92a88e9b0985bb7d85fce062730057312b99a9e243fde5ee191602091848652600b8352816104ad818389209060ff801983541691151516179055565b6104bc575b519015158152a280f35b847f99c293efe82a3ef3312126ae84d020090de7008c510cb704c963ac1c3c04e215848351428152a26104b2565b905163d92e233d60e01b8152fd5b505034610259578160031936011261025957602090600e549051908152f35b5050346102595781600319360112610259576101409060025490600754600854600c54600d54600e549160018060a01b03600f54169360ff6014541695600954978051998a526b204fce5e3e2502611000000060208b01528901526060880152608087015260a086015260c085015260e08401521515610100830152610120820152f35b5050346102595781600319360112610259576020906007549051908152f35b8383346102595780600319360112610259578235602435936105da6116cb565b6002546103e881048310610670576107d09004851061062d57507fbf7a01a1b3c67c6c108df8629832e2b6c4056d0768b0d33bf4bf221aa8b761fd9293816007558060085582519182526020820152a180f35b606490602084519162461bcd60e51b8352820152601760248201527f4d6178207472616e73616374696f6e20746f6f206c6f770000000000000000006044820152fd5b835162461bcd60e51b815260208184015260126024820152714d61782077616c6c657420746f6f206c6f7760701b6044820152606490fd5b5050346102595780600319360112610259576020906106d26106c861162c565b60243590336118cc565b5160018152f35b8284346107f457806003193601126107f45781519181845492600184811c918186169586156107ea575b60209687851081146107d7579087899a92868b999a9b5291826000146107ad575050600114610752575b858861074e8961073f848a038561172c565b51928284938452830190611647565b0390f35b815286935091907f8a35acfbc15ff81a39ae7d344fd709f28e8600b4aa8c65c6b64bfe7fe36bd19b5b828410610795575050508201018161073f61074e8861072d565b8054848a01860152889550879490930192810161077b565b60ff19168882015294151560051b8701909401945085935061073f925061074e915089905061072d565b634e487b7160e01b835260228a52602483fd5b92607f1692610703565b80fd5b919050346102fa57806003193601126102fa5761081261162c565b6024359261081e6116cb565b60026006541461096157600260065584916001600160a01b039190821690308214610900575b8161088357505081809394819260055460081c1682821561087a575bf11561087057505b600160065580f35b51903d90823e3d90fd5b506108fc610860565b6020936044929360055460081c16938651978895869463a9059cbb60e01b865285015260248401525af19081156108f757506108c0575b50610868565b6020813d82116108ef575b816108d86020938361172c565b810103126102595751801515036107f457386108ba565b3d91506108cb565b513d84823e3d90fd5b909192503086528560205283862054851161091e5790859291610844565b606490602085519162461bcd60e51b8352820152601860248201527f43616e6e6f7420776974686472617720636f72652048475400000000000000006044820152fd5b8251633ee5aeb560e01b8152fd5b505034610259578160031936011261025957600554905160089190911c6001600160a01b03168152602090f35b9050346102fa57826003193601126102fa576109b66116cb565b6014549060ff82166109fe57507fb3da2db3dfc3778f99852546c6e9ab39ec253f9de7b0847afec61bd27878e92391600160209260ff1916176014554260095551428152a180f35b606490602084519162461bcd60e51b8352820152601760248201527f54726164696e6720616c726561647920656e61626c65640000000000000000006044820152fd5b50503461025957816003193601126102595760207f62e78cea01bee320cd4e420270b5ea74000d11b0c9f74754ebdbfc544b05a25891610a7f6116cb565b610a87611d45565b600160ff19600554161760055551338152a180f35b83915034610259578260031936011261025957610ab761162c565b92602435916001600160a01b0385163381141580610b5a575b610ae3575b84610ae085886117e1565b80f35b845260016020528184203385526020528184205491838310610b2357505092610b1a610b1383610ae095966118a9565b338361174e565b92918480610ad5565b5163db42144d60e01b81526001600160a01b03909516908501908152602081019290925260408201528291506060010390fd5b0390fd5b50338552601260205260ff838620541615610ad0565b8284346107f4575061074e610b8d610b8736611687565b91611d63565b839291925193849315158452806020850152830190611647565b5050346102595781600319360112610259576020906009549051908152f35b919050346102fa57806003193601126102fa57610be161162c565b90610bea6116bc565b91610bf36116cb565b6001600160a01b03169283156104ea57506000805160206120468339815191529160036080928587526010602052610c39838289209060ff801983541691151516179055565b805192151583528060208401528201526266656560e81b6060820152a280f35b83346107f457806003193601126107f457610c726116cb565b60058054610100600160a81b03198116909155819060081c6001600160a01b03167f8be0079c531659141344cd1fd0a4f28419497f9722a3daafe3b4186f6b6457e08280a380f35b5050346102595760203660031901126102595760209181906001600160a01b03610ce261162c565b16815280845220549051908152f35b919050346102fa57806003193601126102fa57610d0c61162c565b90610d156116bc565b91610d1e6116cb565b6001600160a01b03169283156104ea575060008051602061204683398151915291600a6080928587526012602052610d64838289209060ff801983541691151516179055565b80519215158352806020840152820152693a3930b739b0b1ba37b960b11b6060820152a280f35b5050346102595760203660031901126102595760209160ff9082906001600160a01b03610db661162c565b1681526010855220541690519015158152f35b50503461025957816003193601126102595760209060ff6005541690519015158152f35b919050346102fa57806003193601126102fa5781359167ffffffffffffffff918284116103c957366023850112156103c957838201359283116103c957602493848101908536918660051b010111610f5b57610e476116bc565b90610e506116cb565b865b858110610e5d578780f35b876001600160a01b0380610e7a610e75858b88611d0b565b611d31565b16610ea5575b50506000198114610e9357600101610e52565b634e487b7160e01b8852601185528688fd5b807f066e0c23b9ae0bb92a88e9b0985bb7d85fce062730057312b99a9e243fde5ee191610ed6610e75868c89611d0b565b16835285610ef88189602096600b8852209060ff801983541691151516179055565b610f1c575b610f0b610e75858b88611d0b565b169186518615158152a28738610e80565b610f2a610e75858b88611d0b565b7f99c293efe82a3ef3312126ae84d020090de7008c510cb704c963ac1c3c04e21584838a51934285521692a2610efd565b8580fd5b5050346102595781600319360112610259576020905161012c8152f35b50503461025957816003193601126102595760209060ff6014541690519015158152f35b505034610259578160031936011261025957602090600c549051908152f35b505034610259578160031936011261025957600f5490516001600160a01b039091168152602090f35b919050346102fa57806003193601126102fa5761100361162c565b9061100c6116bc565b916110156116cb565b6001600160a01b03169283156104ea5750600080516020612046833981519152916005608092858752601160205261105b838289209060ff801983541691151516179055565b80519215158352806020840152820152641b1a5b5a5d60da1b6060820152a280f35b83903461025957602036600319011261025957610ae09035336117e1565b919050346102fa57806003193601126102fa576110b661162c565b90602435916110c36116cb565b6001600160a01b03169283156104ea57600254906b204fce5e3e25026110000000806110ef8685611aef565b11611150575050827fddf252ad1be2c89b69c2b068fc378daa952ba7f163c4a11628f55a4df523b3ef926111368795602094611129611d45565b611131611d45565b611aef565b60025585855284835280852082815401905551908152a380f35b835163adc3cee560e01b8152918201859052602482015260449150fd5b9050346102fa57826003193601126102fa576111876116cb565b6005549060ff8216156111c9575060ff1916600555513381527f5db9ee0a495bf2e6ff9c91a7834c1ba4fdd244a5e8aa4e537bd38aeae4b073aa90602090a180f35b8251638dfc202b60e01b8152fd5b5050346102595760203660031901126102595760209160ff9082906001600160a01b0361120261162c565b168152600b855220541690519015158152f35b5050346102595781600319360112610259576020905160128152f35b505034610259578160031936011261025957602090600d549051908152f35b919050346102fa57806003193601126102fa5761126b61162c565b906112746116bc565b9161127d6116cb565b6001600160a01b03169283156104ea575060008051602061204683398151915291600860809285875260136020526112c3838289209060ff801983541691151516179055565b805192151583528060208401528201526765786368616e676560c01b6060820152a280f35b83915034610259576112f936611687565b6001600160a01b03831680865260016020908152878720338852905286862054919592946000198310611335575b6020886106d28989896118cc565b86831061139d57811561138657331561136f575082526001602090815286832033845281529186902090859003905582906106d287611327565b8751634a1406b160e11b8152908101849052602490fd5b875163e602df0560e01b8152908101849052602490fd5b8751637dc7a0d960e11b8152339181019182526020820193909352604081018790528291506060010390fd5b9050346102fa5760603660031901126102fa57803591602435604435926113ee6116cb565b6101f480861180156114aa575b80156114a1575b61144b57867fcf8a1e1d5f09cf3c97dbb653cd9a4d7aace9292fbc1bb8211febf2d400febbdd60608888888883600c5580600d5582600e5581519384526020840152820152a180f35b838686896044968084116000146114875750508082111561148057505b905b516318731f9b60e01b8152928301526024820152fd5b9050611468565b9250508082111561149a57505b9061146a565b9050611494565b50808511611402565b508083116113fb565b5050346102595781600319360112610259576020906002549051908152f35b5050346102595780600319360112610259576020906106d26114f261162c565b602435903361174e565b8284346107f457806003193601126107f4578151918160035492600184811c918186169586156115e7575b60209687851081146107d7578899509688969785829a5291826000146115c0575050600114611564575b50505061074e929161073f91038561172c565b9190869350600383527fc2575a0e9e593c00f959f8c92f12db2869c3395a3b0502d05e2516446f71f85b5b8284106115a8575050508201018161073f61074e611551565b8054848a01860152889550879490930192810161158f565b60ff19168782015293151560051b8601909301935084925061073f915061074e9050611551565b92607f1692611527565b849084346102fa5760203660031901126102fa5760209260ff91906001600160a01b0361161c61162c565b1681526013855220541615158152f35b600435906001600160a01b038216820361164257565b600080fd5b919082519283825260005b848110611673575050826000602080949584010152601f8019910116010190565b602081830181015184830182015201611652565b6060906003190112611642576001600160a01b0390600435828116810361164257916024359081168103611642579060443590565b60243590811515820361164257565b60055460081c6001600160a01b031633036116e257565b60405163118cdaa760e01b8152336004820152602490fd5b6040810190811067ffffffffffffffff82111761171657604052565b634e487b7160e01b600052604160045260246000fd5b90601f8019910116810190811067ffffffffffffffff82111761171657604052565b6001600160a01b039081169182156117c857169182156117af5760207f8c5be1e5ebec7d5bd14f71427d1e84f3dd0314c0f7b2291e5b200ac8c7c3b925918360005260018252604060002085600052825280604060002055604051908152a3565b604051634a1406b160e11b815260006004820152602490fd5b60405163e602df0560e01b815260006004820152602490fd5b906001600160a01b038216908115611890576117fb611d45565b611803611d45565b6000928284528360205260408420549082821061185e5750817fddf252ad1be2c89b69c2b068fc378daa952ba7f163c4a11628f55a4df523b3ef926020928587528684520360408620558060025403600255604051908152a3565b60405163391434e360e21b81526001600160a01b03919091166004820152602481019190915260448101829052606490fd5b604051634b637e8f60e11b815260006004820152602490fd5b919082039182116118b657565b634e487b7160e01b600052601160045260246000fd5b91906001600160a01b039081841680158015611a10575b6119fe576118f2848387611afc565b600094818652600b60205260409460ff868820541680156119ec575b6119d45760095461012c81018091116119c0574210611984575b6119328483611bfb565b61195161194a611943838786611c5e565b80936118a9565b8584611a1a565b8061196e575b50508452600a602052438385205516825243912055565b61197d9185600f541690611a1a565b3880611957565b828752600a60205285872054431480156119af575b1561192857855163db516bc760e01b8152600490fd5b508484168752438688205414611999565b634e487b7160e01b88526011600452602488fd5b8551635aeb45ab60e11b815260048101849052602490fd5b50848416875260ff868820541661190e565b60405163d92e233d60e01b8152600490fd5b50828216156118e3565b916001600160a01b038084169283156118905716928315611ad657611a3d611d45565b611a45611d45565b60009083825281602052604082205490838210611aa4575091604082827fddf252ad1be2c89b69c2b068fc378daa952ba7f163c4a11628f55a4df523b3ef958760209652828652038282205586815220818154019055604051908152a3565b60405163391434e360e21b81526001600160a01b03919091166004820152602481019190915260448101839052606490fd5b60405163ec442f0560e01b815260006004820152602490fd5b919082018092116118b657565b6001600160a01b039081166000818152601160205260408082205490959391929060ff168015611be9575b611be157600854808511611bc557508252601360205260ff85832054161580611ba5575b611b56575050505050565b9184611b6f92610b569486168152806020522054611aef565b6007549351636524206560e01b81526001600160a01b039093166004840152602483015260448201929092529081906064820190565b50808416825281602052611bbc8386842054611aef565b60075410611b4b565b8460449188519162107f4360e31b835260048301526024820152fd5b505050505050565b50818516835260ff8684205416611b27565b6001600160a01b0390811660009081526012602052604090205460ff16918215611c47575b5050611c455760ff6014541615611c3357565b6040516312f1f92360e01b8152600490fd5b565b9091501660005260ff604060002054163880611c20565b60018060a01b0380911690600092828452601060205260ff6040852054168015611cf8575b611cf0571682526013602052604082205460ff1615611ccf5750600c54915b828102928184041490151715611cbb5750612710900490565b634e487b7160e01b81526011600452602490fd5b8152604081205460ff1615611ce757600d5491611ca2565b600e5491611ca2565b505050905090565b50818116845260ff604085205416611c83565b9190811015611d1b5760051b0190565b634e487b7160e01b600052603260045260246000fd5b356001600160a01b03811681036116425790565b60ff60055416611d5157565b60405163d93c066560e01b8152600490fd5b90929160018060a01b0380921690600091808352602093600b855260ff906040978289872054168015612034575b6120085782601454161580611ff4575b80611fde575b611fb557838652601187528289872054161580611fa3575b80611f98575b611f5b57169283855260118652818886205416159182611f46575b5081611f28575b50611eee5760095461012c8101809111611eda574210611e34575b50505072151c985b9cd858dd1a5bdb88185b1b1bddd959606a1b6001935191611e2a836116fa565b6013835282015290565b8252600a8352848220544314908115611ecb575b50611e54578080611e02565b835190939091606083018567ffffffffffffffff821185831017611eb757508252602e83527f53616d6520626c6f636b207472616e73616374696f6e20647572696e6720736e908301526d34b83290383937ba32b1ba34b7b760911b9082015290565b634e487b7160e01b81526041600452602490fd5b82525083812054431438611e48565b634e487b7160e01b84526011600452602484fd5b50507f45786365656473206d61782077616c6c657420616d6f756e740000000000000090935191611f1e836116fa565b6019835282015290565b611f3c915083855284865287852054611aef565b6007541038611de7565b83865260138752888620541615915038611de0565b50505050507f45786365656473206d6178207472616e73616374696f6e20616d6f756e74000090935191611f8e836116fa565b601e835282015290565b506008548511611dc5565b50818116865282898720541615611dbf565b505050505072151c98591a5b99c81b9bdd08195b98589b1959606a1b90935191611e2a836116fa565b5081811686526012875282898720541615611da7565b508386526012875282898720541615611da1565b50505050506b109bdd0819195d1958dd195960a21b9093519161202a836116fa565b600c835282015290565b508181168652828987205416611d9156fe64cbd745c29f5dc2e36f8df54b03e091e8d9ba4f3e2cd69a90b5955f71b5279ea2646970667358221220551ace66256343cfe81bdb4011db8889b9440d548377d77de56bce4ede29bd1b64736f6c63430008140033","opcodes":"PUSH1 0x80 CALLVALUE PUSH3 0x52F JUMPI PUSH1 0x1F NOT SWAP1 PUSH1 0x1F PUSH3 0x260F CODESIZE DUP2 SWAP1 SUB DUP3 DUP2 ADD DUP6 AND DUP5 ADD SWAP4 PUSH1 0x1 PUSH1 0x1 PUSH1 0x40 SHL SUB SWAP3 SWAP1 SWAP2 DUP4 DUP7 GT DUP4 DUP8 LT OR PUSH3 0x433 JUMPI DUP1 DUP4 SWAP3 PUSH1 0x40 SWAP8 DUP9 MSTORE DUP4 CODECOPY PUSH1 0x20 SWAP3 DUP4 SWAP2 DUP2 ADD SUB SLT PUSH3 0x52F JUMPI MLOAD PUSH1 0x1 PUSH1 0x1 PUSH1 0xA0 SHL SUB DUP1 DUP3 AND SWAP4 SWAP1 SWAP2 DUP5 SWAP1 SUB PUSH3 0x52F JUMPI PUSH3 0x6D PUSH3 0x534 JUMP JUMPDEST SWAP5 PUSH1 0xD DUP7 MSTORE PUSH13 0x2432B4B3B43A39902A37B5B2B7 PUSH1 0x99 SHL DUP5 DUP8 ADD MSTORE PUSH3 0x91 PUSH3 0x534 JUMP JUMPDEST SWAP1 PUSH1 0x3 SWAP2 DUP3 DUP2 MSTORE PUSH3 0x1211D5 PUSH1 0xEA SHL DUP7 DUP3 ADD MSTORE DUP8 MLOAD DUP5 DUP2 GT PUSH3 0x433 JUMPI DUP4 SLOAD PUSH1 0x1 SWAP10 DUP11 DUP3 DUP2 SHR SWAP3 AND DUP1 ISZERO PUSH3 0x524 JUMPI JUMPDEST DUP10 DUP4 LT EQ PUSH3 0x50E JUMPI DUP2 DUP6 DUP5 SWAP4 GT PUSH3 0x4B8 JUMPI JUMPDEST POP DUP9 SWAP1 DUP6 DUP4 GT PUSH1 0x1 EQ PUSH3 0x455 JUMPI PUSH1 0x0 SWAP3 PUSH3 0x449 JUMPI JUMPDEST POP POP PUSH1 0x0 NOT DUP3 DUP7 SHL SHR NOT AND SWAP1 DUP10 SHL OR DUP4 SSTORE JUMPDEST DUP1 MLOAD SWAP4 DUP5 GT PUSH3 0x433 JUMPI PUSH1 0x4 SWAP10 DUP11 SLOAD DUP10 DUP2 DUP2 SHR SWAP2 AND DUP1 ISZERO PUSH3 0x428 JUMPI JUMPDEST DUP9 DUP3 LT EQ PUSH3 0x413 JUMPI SWAP1 DUP2 DUP5 DUP8 SWAP7 SWAP6 SWAP5 SWAP4 GT PUSH3 0x3B7 JUMPI JUMPDEST POP DUP8 SWAP3 DUP6 GT PUSH1 0x1 EQ PUSH3 0x34F JUMPI POP PUSH1 0x0 SWAP4 PUSH3 0x343 JUMPI JUMPDEST POP POP DUP3 DUP8 SHL SWAP3 PUSH1 0x0 NOT SWAP2 SHL SHR NOT AND OR DUP7 SSTORE JUMPDEST CALLER ISZERO PUSH3 0x32C JUMPI PUSH1 0x5 DUP1 SLOAD PUSH2 0x100 PUSH1 0x1 PUSH1 0xA8 SHL SUB NOT DUP2 AND CALLER PUSH1 0x8 DUP2 DUP2 SHL PUSH2 0x100 PUSH1 0x1 PUSH1 0xA8 SHL SUB AND SWAP3 SWAP1 SWAP3 OR SWAP1 SWAP4 SSTORE DUP8 MLOAD SWAP4 SWAP2 SWAP1 SHR AND PUSH32 0x8BE0079C531659141344CD1FD0A4F28419497F9722A3DAAFE3B4186F6B6457E0 PUSH1 0x0 DUP1 LOG3 DUP4 PUSH1 0x6 SSTORE PUSH11 0x108B2A2C28029094000000 PUSH1 0x7 SSTORE PUSH11 0x84595161401484A000000 PUSH1 0x8 SSTORE PUSH1 0x32 PUSH1 0xC SSTORE PUSH1 0x50 PUSH1 0xD SSTORE PUSH1 0x1E PUSH1 0xE SSTORE PUSH1 0xFF NOT SWAP1 DUP2 PUSH1 0x14 SLOAD AND PUSH1 0x14 SSTORE DUP4 ISZERO PUSH3 0x31E JUMPI POP PUSH1 0xF DUP1 SLOAD PUSH1 0x1 PUSH1 0x1 PUSH1 0xA0 SHL SUB NOT AND DUP5 OR SWAP1 SSTORE TIMESTAMP PUSH1 0x9 SSTORE PUSH3 0x21A PUSH3 0x554 JUMP JUMPDEST PUSH3 0x224 PUSH3 0x554 JUMP JUMPDEST PUSH1 0x2 SLOAD SWAP4 PUSH12 0x33B2E3C9FD0803CE8000000 SWAP5 DUP6 DUP2 ADD DUP1 SWAP2 GT PUSH3 0x309 JUMPI PUSH1 0x0 SWAP6 SWAP7 SWAP8 POP PUSH1 0x2 SSTORE CALLER DUP6 MSTORE DUP5 DUP4 MSTORE DUP7 DUP6 KECCAK256 DUP7 DUP2 SLOAD ADD SWAP1 SSTORE DUP7 MLOAD SWAP4 DUP7 DUP6 MSTORE PUSH32 0xDDF252AD1BE2C89B69C2B068FC378DAA952BA7F163C4A11628F55A4DF523B3EF SWAP5 DUP7 DUP7 DUP7 CALLER SWAP4 LOG3 CALLER DUP7 MSTORE PUSH1 0x10 DUP5 MSTORE DUP8 DUP7 KECCAK256 DUP3 DUP5 DUP3 SLOAD AND OR SWAP1 SSTORE ADDRESS DUP7 MSTORE DUP8 DUP7 KECCAK256 DUP3 DUP5 DUP3 SLOAD AND OR SWAP1 SSTORE DUP1 DUP7 MSTORE DUP8 DUP7 KECCAK256 DUP3 DUP5 DUP3 SLOAD AND OR SWAP1 SSTORE CALLER DUP7 MSTORE PUSH1 0x11 DUP5 MSTORE DUP8 DUP7 KECCAK256 DUP3 DUP5 DUP3 SLOAD AND OR SWAP1 SSTORE ADDRESS DUP7 MSTORE DUP8 DUP7 KECCAK256 DUP3 DUP5 DUP3 SLOAD AND OR SWAP1 SSTORE DUP6 MSTORE DUP7 DUP6 KECCAK256 DUP2 DUP4 DUP3 SLOAD AND OR SWAP1 SSTORE CALLER DUP6 MSTORE PUSH1 0x12 DUP4 MSTORE DUP7 DUP6 KECCAK256 SWAP2 DUP3 SLOAD AND OR SWAP1 SSTORE DUP5 MLOAD SWAP4 DUP5 MSTORE CALLER SWAP4 LOG3 MLOAD PUSH2 0x209B SWAP1 DUP2 PUSH3 0x574 DUP3 CODECOPY RETURN JUMPDEST PUSH1 0x11 DUP9 PUSH4 0x4E487B71 PUSH1 0xE0 SHL PUSH1 0x0 MSTORE MSTORE PUSH1 0x24 PUSH1 0x0 REVERT JUMPDEST PUSH4 0xD92E233D PUSH1 0xE0 SHL DUP2 MSTORE DUP7 SWAP1 REVERT JUMPDEST DUP5 MLOAD PUSH4 0x1E4FBDF7 PUSH1 0xE0 SHL DUP2 MSTORE PUSH1 0x0 DUP2 DUP9 ADD MSTORE PUSH1 0x24 SWAP1 REVERT JUMPDEST ADD MLOAD SWAP2 POP CODESIZE DUP1 PUSH3 0x149 JUMP JUMPDEST DUP10 SWAP6 SWAP4 SWAP3 SWAP2 SWAP4 AND SWAP3 DUP12 PUSH1 0x0 MSTORE DUP8 PUSH1 0x0 KECCAK256 SWAP4 PUSH1 0x0 JUMPDEST DUP10 DUP3 DUP3 LT PUSH3 0x3A0 JUMPI POP POP DUP6 GT PUSH3 0x385 JUMPI JUMPDEST POP POP POP POP DUP2 SHL ADD DUP7 SSTORE PUSH3 0x15B JUMP JUMPDEST ADD MLOAD SWAP1 PUSH1 0xF8 DUP5 PUSH1 0x0 NOT SWAP3 SHL AND SHR NOT AND SWAP1 SSTORE CODESIZE DUP1 DUP1 DUP1 PUSH3 0x376 JUMP JUMPDEST DUP4 DUP6 ADD MLOAD DUP8 SSTORE DUP13 SWAP9 SWAP1 SWAP7 ADD SWAP6 SWAP4 DUP5 ADD SWAP4 ADD PUSH3 0x363 JUMP JUMPDEST SWAP1 SWAP2 SWAP3 SWAP4 SWAP5 POP DUP12 PUSH1 0x0 MSTORE DUP8 PUSH1 0x0 KECCAK256 DUP5 DUP1 DUP9 ADD PUSH1 0x5 SHR DUP3 ADD SWAP3 DUP11 DUP10 LT PUSH3 0x409 JUMPI JUMPDEST SWAP2 DUP13 SWAP2 DUP10 SWAP9 SWAP8 SWAP7 SWAP6 SWAP5 SWAP4 ADD PUSH1 0x5 SHR ADD SWAP2 JUMPDEST DUP3 DUP2 LT PUSH3 0x3F9 JUMPI POP POP PUSH3 0x132 JUMP JUMPDEST PUSH1 0x0 DUP2 SSTORE DUP9 SWAP8 POP DUP13 SWAP2 ADD PUSH3 0x3E9 JUMP JUMPDEST SWAP3 POP DUP2 SWAP3 PUSH3 0x3D8 JUMP JUMPDEST PUSH1 0x22 DUP13 PUSH4 0x4E487B71 PUSH1 0xE0 SHL PUSH1 0x0 MSTORE MSTORE PUSH1 0x24 PUSH1 0x0 REVERT JUMPDEST SWAP1 PUSH1 0x7F AND SWAP1 PUSH3 0x11A JUMP JUMPDEST PUSH4 0x4E487B71 PUSH1 0xE0 SHL PUSH1 0x0 MSTORE PUSH1 0x41 PUSH1 0x4 MSTORE PUSH1 0x24 PUSH1 0x0 REVERT JUMPDEST ADD MLOAD SWAP1 POP CODESIZE DUP1 PUSH3 0xEB JUMP JUMPDEST SWAP1 DUP14 DUP13 SWAP5 AND SWAP2 DUP8 PUSH1 0x0 MSTORE DUP11 PUSH1 0x0 KECCAK256 SWAP3 PUSH1 0x0 JUMPDEST DUP13 DUP3 DUP3 LT PUSH3 0x4A1 JUMPI POP POP DUP5 GT PUSH3 0x488 JUMPI JUMPDEST POP POP POP DUP2 SHL ADD DUP4 SSTORE PUSH3 0xFD JUMP JUMPDEST ADD MLOAD PUSH1 0x0 NOT DUP4 DUP9 SHL PUSH1 0xF8 AND SHR NOT AND SWAP1 SSTORE CODESIZE DUP1 DUP1 PUSH3 0x47A JUMP JUMPDEST DUP4 DUP6 ADD MLOAD DUP7 SSTORE DUP16 SWAP8 SWAP1 SWAP6 ADD SWAP5 SWAP4 DUP5 ADD SWAP4 ADD PUSH3 0x467 JUMP JUMPDEST SWAP1 SWAP2 POP DUP6 PUSH1 0x0 MSTORE DUP9 PUSH1 0x0 KECCAK256 DUP6 DUP1 DUP6 ADD PUSH1 0x5 SHR DUP3 ADD SWAP3 DUP12 DUP7 LT PUSH3 0x504 JUMPI JUMPDEST SWAP2 DUP14 SWAP2 DUP7 SWAP6 SWAP5 SWAP4 ADD PUSH1 0x5 SHR ADD SWAP2 JUMPDEST DUP3 DUP2 LT PUSH3 0x4F4 JUMPI POP POP PUSH3 0xD4 JUMP JUMPDEST PUSH1 0x0 DUP2 SSTORE DUP6 SWAP5 POP DUP14 SWAP2 ADD PUSH3 0x4E4 JUMP JUMPDEST SWAP3 POP DUP2 SWAP3 PUSH3 0x4D6 JUMP JUMPDEST PUSH4 0x4E487B71 PUSH1 0xE0 SHL PUSH1 0x0 MSTORE PUSH1 0x22 PUSH1 0x4 MSTORE PUSH1 0x24 PUSH1 0x0 REVERT JUMPDEST SWAP2 PUSH1 0x7F AND SWAP2 PUSH3 0xC0 JUMP JUMPDEST PUSH1 0x0 DUP1 REVERT JUMPDEST PUSH1 0x40 DUP1 MLOAD SWAP2 SWAP1 DUP3 ADD PUSH1 0x1 PUSH1 0x1 PUSH1 0x40 SHL SUB DUP2 GT DUP4 DUP3 LT OR PUSH3 0x433 JUMPI PUSH1 0x40 MSTORE JUMP JUMPDEST PUSH1 0xFF PUSH1 0x5 SLOAD AND PUSH3 0x561 JUMPI JUMP JUMPDEST PUSH1 0x40 MLOAD PUSH4 0xD93C0665 PUSH1 0xE0 SHL DUP2 MSTORE PUSH1 0x4 SWAP1 REVERT INVALID PUSH1 0x80 PUSH1 0x40 DUP2 DUP2 MSTORE PUSH1 0x4 SWAP2 DUP3 CALLDATASIZE LT ISZERO PUSH2 0x1F JUMPI JUMPDEST POP POP POP CALLDATASIZE ISZERO PUSH2 0x1D JUMPI STOP JUMPDEST STOP JUMPDEST PUSH1 0x0 SWAP3 DUP4 CALLDATALOAD PUSH1 0xE0 SHR SWAP2 DUP3 PUSH3 0x36D2D3 EQ PUSH2 0x15F1 JUMPI POP DUP2 PUSH4 0x6FDDE03 EQ PUSH2 0x14FC JUMPI DUP2 PUSH4 0x95EA7B3 EQ PUSH2 0x14D2 JUMPI DUP2 PUSH4 0x18160DDD EQ PUSH2 0x14B3 JUMPI DUP2 PUSH4 0x22429085 EQ PUSH2 0x13C9 JUMPI DUP2 PUSH4 0x23B872DD EQ PUSH2 0x12E8 JUMPI DUP2 PUSH4 0x24FFF6C9 EQ PUSH2 0x1250 JUMPI DUP2 PUSH4 0x2B14CA56 EQ PUSH2 0x1231 JUMPI DUP2 PUSH4 0x313CE567 EQ PUSH2 0x1215 JUMPI DUP2 PUSH4 0x3BBAC579 EQ PUSH2 0x11D7 JUMPI DUP2 PUSH4 0x3F4BA83A EQ PUSH2 0x116D JUMPI DUP2 PUSH4 0x40C10F19 EQ PUSH2 0x109B JUMPI DUP2 PUSH4 0x42966C68 EQ PUSH2 0x107D JUMPI DUP2 PUSH4 0x4463C1B2 EQ PUSH2 0xFE8 JUMPI DUP2 PUSH4 0x46904840 EQ PUSH2 0xFBF JUMPI DUP2 PUSH4 0x47062402 EQ PUSH2 0xFA0 JUMPI DUP2 PUSH4 0x4ADA218B EQ PUSH2 0xF7C JUMPI DUP2 PUSH4 0x541FCFC8 EQ PUSH2 0xF5F JUMPI DUP2 PUSH4 0x5582B4AB EQ PUSH2 0xDED JUMPI DUP2 PUSH4 0x5C975ABB EQ PUSH2 0xDC9 JUMPI DUP2 PUSH4 0x60FD0989 EQ PUSH2 0xD8B JUMPI DUP2 PUSH4 0x65A0F021 EQ PUSH2 0xCF1 JUMPI DUP2 PUSH4 0x70A08231 EQ PUSH2 0xCBA JUMPI DUP2 PUSH4 0x715018A6 EQ PUSH2 0xC59 JUMPI DUP2 PUSH4 0x751FD179 EQ PUSH2 0xBC6 JUMPI DUP2 PUSH4 0x790CA413 EQ PUSH2 0xBA7 JUMPI DUP2 PUSH4 0x79B40D63 EQ PUSH2 0xB70 JUMPI DUP2 PUSH4 0x79CC6790 EQ PUSH2 0xA9C JUMPI DUP2 PUSH4 0x8456CB59 EQ PUSH2 0xA41 JUMPI DUP2 PUSH4 0x8A8C523C EQ PUSH2 0x99C JUMPI DUP2 PUSH4 0x8DA5CB5B EQ PUSH2 0x96F JUMPI DUP2 PUSH4 0x95CCEA67 EQ PUSH2 0x7F7 JUMPI DUP2 PUSH4 0x95D89B41 EQ PUSH2 0x6D9 JUMPI DUP2 PUSH4 0xA9059CBB EQ PUSH2 0x6A8 JUMPI DUP2 PUSH4 0xA9B06FA7 EQ PUSH2 0x5BA JUMPI DUP2 PUSH4 0xAA4BDE28 EQ PUSH2 0x59B JUMPI DUP2 PUSH4 0xABB1DC44 EQ PUSH2 0x517 JUMPI DUP2 PUSH4 0xACB2AD6F EQ PUSH2 0x4F8 JUMPI DUP2 PUSH4 0xB3D618DB EQ PUSH2 0x42A JUMPI DUP2 PUSH4 0xC8C8EBE4 EQ PUSH2 0x40B JUMPI DUP2 PUSH4 0xCD2C6A99 EQ PUSH2 0x3CD JUMPI DUP2 PUSH4 0xDD62ED3E EQ PUSH2 0x379 JUMPI DUP2 PUSH4 0xF160D369 EQ PUSH2 0x2FE JUMPI DUP2 PUSH4 0xF2FDE38B EQ PUSH2 0x25D JUMPI POP PUSH4 0xF6E1BFD8 EQ PUSH2 0x21D JUMPI DUP1 PUSH2 0x12 JUMP JUMPDEST CALLVALUE PUSH2 0x259 JUMPI PUSH1 0x20 CALLDATASIZE PUSH1 0x3 NOT ADD SLT PUSH2 0x259 JUMPI PUSH1 0x20 SWAP2 PUSH1 0xFF SWAP1 DUP3 SWAP1 PUSH1 0x1 PUSH1 0x1 PUSH1 0xA0 SHL SUB PUSH2 0x246 PUSH2 0x162C JUMP JUMPDEST AND DUP2 MSTORE PUSH1 0x12 DUP6 MSTORE KECCAK256 SLOAD AND SWAP1 MLOAD SWAP1 ISZERO ISZERO DUP2 MSTORE RETURN JUMPDEST POP DUP1 REVERT JUMPDEST SWAP1 POP CALLVALUE PUSH2 0x2FA JUMPI PUSH1 0x20 CALLDATASIZE PUSH1 0x3 NOT ADD SLT PUSH2 0x2FA JUMPI PUSH2 0x278 PUSH2 0x162C JUMP JUMPDEST PUSH2 0x280 PUSH2 0x16CB JUMP JUMPDEST PUSH1 0x1 PUSH1 0x1 PUSH1 0xA0 SHL SUB DUP2 DUP2 AND SWAP4 SWAP1 SWAP3 SWAP1 DUP5 ISZERO PUSH2 0x2E4 JUMPI POP POP PUSH1 0x5 DUP1 SLOAD PUSH2 0x100 PUSH1 0x1 PUSH1 0xA8 SHL SUB NOT DUP2 AND PUSH1 0x8 SWAP4 DUP5 SHL PUSH2 0x100 PUSH1 0x1 PUSH1 0xA8 SHL SUB AND OR SWAP1 SWAP2 SSTORE SWAP1 SHR AND PUSH32 0x8BE0079C531659141344CD1FD0A4F28419497F9722A3DAAFE3B4186F6B6457E0 DUP4 DUP1 LOG3 DUP1 RETURN JUMPDEST MLOAD PUSH4 0x1E4FBDF7 PUSH1 0xE0 SHL DUP2 MSTORE SWAP1 DUP2 ADD DUP6 SWAP1 MSTORE PUSH1 0x24 SWAP1 REVERT JUMPDEST DUP3 DUP1 REVERT JUMPDEST SWAP1 POP CALLVALUE PUSH2 0x2FA JUMPI PUSH1 0x20 CALLDATASIZE PUSH1 0x3 NOT ADD SLT PUSH2 0x2FA JUMPI PUSH2 0x319 PUSH2 0x162C JUMP JUMPDEST PUSH2 0x321 PUSH2 0x16CB JUMP JUMPDEST PUSH1 0x1 PUSH1 0x1 PUSH1 0xA0 SHL SUB AND SWAP2 DUP3 ISZERO PUSH2 0x36C JUMPI POP POP PUSH1 0xF DUP1 SLOAD PUSH1 0x1 PUSH1 0x1 PUSH1 0xA0 SHL SUB NOT AND DUP3 OR SWAP1 SSTORE PUSH32 0x7A7B5A0A132F9E0581EB8527F66EAE9EE89C2A3E79D4AC7E41A1F1F4D48A7FC2 DUP3 DUP1 LOG2 DUP1 RETURN JUMPDEST MLOAD PUSH4 0xD92E233D PUSH1 0xE0 SHL DUP2 MSTORE REVERT JUMPDEST POP POP CALLVALUE PUSH2 0x259 JUMPI DUP1 PUSH1 0x3 NOT CALLDATASIZE ADD SLT PUSH2 0x259 JUMPI PUSH2 0x393 PUSH2 0x162C JUMP JUMPDEST PUSH1 0x1 PUSH1 0x1 PUSH1 0xA0 SHL SUB PUSH1 0x24 CALLDATALOAD DUP2 DUP2 AND SWAP3 SWAP1 DUP4 SWAP1 SUB PUSH2 0x3C9 JUMPI SWAP2 PUSH1 0x20 SWAP5 SWAP2 DUP5 SWAP4 AND DUP3 MSTORE PUSH1 0x1 DUP6 MSTORE DUP3 DUP3 KECCAK256 SWAP1 DUP3 MSTORE DUP5 MSTORE KECCAK256 SLOAD SWAP1 MLOAD SWAP1 DUP2 MSTORE RETURN JUMPDEST DUP5 DUP1 REVERT JUMPDEST POP POP CALLVALUE PUSH2 0x259 JUMPI PUSH1 0x20 CALLDATASIZE PUSH1 0x3 NOT ADD SLT PUSH2 0x259 JUMPI PUSH1 0x20 SWAP2 PUSH1 0xFF SWAP1 DUP3 SWAP1 PUSH1 0x1 PUSH1 0x1 PUSH1 0xA0 SHL SUB PUSH2 0x3F8 PUSH2 0x162C JUMP JUMPDEST AND DUP2 MSTORE PUSH1 0x11 DUP6 MSTORE KECCAK256 SLOAD AND SWAP1 MLOAD SWAP1 ISZERO ISZERO DUP2 MSTORE RETURN JUMPDEST POP POP CALLVALUE PUSH2 0x259 JUMPI DUP2 PUSH1 0x3 NOT CALLDATASIZE ADD SLT PUSH2 0x259 JUMPI PUSH1 0x20 SWAP1 PUSH1 0x8 SLOAD SWAP1 MLOAD SWAP1 DUP2 MSTORE RETURN JUMPDEST SWAP2 SWAP1 POP CALLVALUE PUSH2 0x2FA JUMPI DUP1 PUSH1 0x3 NOT CALLDATASIZE ADD SLT PUSH2 0x2FA JUMPI PUSH2 0x445 PUSH2 0x162C JUMP JUMPDEST SWAP1 PUSH2 0x44E PUSH2 0x16BC JUMP JUMPDEST SWAP2 PUSH2 0x457 PUSH2 0x16CB JUMP JUMPDEST PUSH1 0x1 PUSH1 0x1 PUSH1 0xA0 SHL SUB AND SWAP3 DUP4 ISZERO PUSH2 0x4EA JUMPI POP PUSH32 0x66E0C23B9AE0BB92A88E9B0985BB7D85FCE062730057312B99A9E243FDE5EE1 SWAP2 PUSH1 0x20 SWAP2 DUP5 DUP7 MSTORE PUSH1 0xB DUP4 MSTORE DUP2 PUSH2 0x4AD DUP2 DUP4 DUP10 KECCAK256 SWAP1 PUSH1 0xFF DUP1 NOT DUP4 SLOAD AND SWAP2 ISZERO ISZERO AND OR SWAP1 SSTORE JUMP JUMPDEST PUSH2 0x4BC JUMPI JUMPDEST MLOAD SWAP1 ISZERO ISZERO DUP2 MSTORE LOG2 DUP1 RETURN JUMPDEST DUP5 PUSH32 0x99C293EFE82A3EF3312126AE84D020090DE7008C510CB704C963AC1C3C04E215 DUP5 DUP4 MLOAD TIMESTAMP DUP2 MSTORE LOG2 PUSH2 0x4B2 JUMP JUMPDEST SWAP1 MLOAD PUSH4 0xD92E233D PUSH1 0xE0 SHL DUP2 MSTORE REVERT JUMPDEST POP POP CALLVALUE PUSH2 0x259 JUMPI DUP2 PUSH1 0x3 NOT CALLDATASIZE ADD SLT PUSH2 0x259 JUMPI PUSH1 0x20 SWAP1 PUSH1 0xE SLOAD SWAP1 MLOAD SWAP1 DUP2 MSTORE RETURN JUMPDEST POP POP CALLVALUE PUSH2 0x259 JUMPI DUP2 PUSH1 0x3 NOT CALLDATASIZE ADD SLT PUSH2 0x259 JUMPI PUSH2 0x140 SWAP1 PUSH1 0x2 SLOAD SWAP1 PUSH1 0x7 SLOAD PUSH1 0x8 SLOAD PUSH1 0xC SLOAD PUSH1 0xD SLOAD PUSH1 0xE SLOAD SWAP2 PUSH1 0x1 DUP1 PUSH1 0xA0 SHL SUB PUSH1 0xF SLOAD AND SWAP4 PUSH1 0xFF PUSH1 0x14 SLOAD AND SWAP6 PUSH1 0x9 SLOAD SWAP8 DUP1 MLOAD SWAP10 DUP11 MSTORE PUSH12 0x204FCE5E3E25026110000000 PUSH1 0x20 DUP12 ADD MSTORE DUP10 ADD MSTORE PUSH1 0x60 DUP9 ADD MSTORE PUSH1 0x80 DUP8 ADD MSTORE PUSH1 0xA0 DUP7 ADD MSTORE PUSH1 0xC0 DUP6 ADD MSTORE PUSH1 0xE0 DUP5 ADD MSTORE ISZERO ISZERO PUSH2 0x100 DUP4 ADD MSTORE PUSH2 0x120 DUP3 ADD MSTORE RETURN JUMPDEST POP POP CALLVALUE PUSH2 0x259 JUMPI DUP2 PUSH1 0x3 NOT CALLDATASIZE ADD SLT PUSH2 0x259 JUMPI PUSH1 0x20 SWAP1 PUSH1 0x7 SLOAD SWAP1 MLOAD SWAP1 DUP2 MSTORE RETURN JUMPDEST DUP4 DUP4 CALLVALUE PUSH2 0x259 JUMPI DUP1 PUSH1 0x3 NOT CALLDATASIZE ADD SLT PUSH2 0x259 JUMPI DUP3 CALLDATALOAD PUSH1 0x24 CALLDATALOAD SWAP4 PUSH2 0x5DA PUSH2 0x16CB JUMP JUMPDEST PUSH1 0x2 SLOAD PUSH2 0x3E8 DUP2 DIV DUP4 LT PUSH2 0x670 JUMPI PUSH2 0x7D0 SWAP1 DIV DUP6 LT PUSH2 0x62D JUMPI POP PUSH32 0xBF7A01A1B3C67C6C108DF8629832E2B6C4056D0768B0D33BF4BF221AA8B761FD SWAP3 SWAP4 DUP2 PUSH1 0x7 SSTORE DUP1 PUSH1 0x8 SSTORE DUP3 MLOAD SWAP2 DUP3 MSTORE PUSH1 0x20 DUP3 ADD MSTORE LOG1 DUP1 RETURN JUMPDEST PUSH1 0x64 SWAP1 PUSH1 0x20 DUP5 MLOAD SWAP2 PUSH3 0x461BCD PUSH1 0xE5 SHL DUP4 MSTORE DUP3 ADD MSTORE PUSH1 0x17 PUSH1 0x24 DUP3 ADD MSTORE PUSH32 0x4D6178207472616E73616374696F6E20746F6F206C6F77000000000000000000 PUSH1 0x44 DUP3 ADD MSTORE REVERT JUMPDEST DUP4 MLOAD PUSH3 0x461BCD PUSH1 0xE5 SHL DUP2 MSTORE PUSH1 0x20 DUP2 DUP5 ADD MSTORE PUSH1 0x12 PUSH1 0x24 DUP3 ADD MSTORE PUSH18 0x4D61782077616C6C657420746F6F206C6F77 PUSH1 0x70 SHL PUSH1 0x44 DUP3 ADD MSTORE PUSH1 0x64 SWAP1 REVERT JUMPDEST POP POP CALLVALUE PUSH2 0x259 JUMPI DUP1 PUSH1 0x3 NOT CALLDATASIZE ADD SLT PUSH2 0x259 JUMPI PUSH1 0x20 SWAP1 PUSH2 0x6D2 PUSH2 0x6C8 PUSH2 0x162C JUMP JUMPDEST PUSH1 0x24 CALLDATALOAD SWAP1 CALLER PUSH2 0x18CC JUMP JUMPDEST MLOAD PUSH1 0x1 DUP2 MSTORE RETURN JUMPDEST DUP3 DUP5 CALLVALUE PUSH2 0x7F4 JUMPI DUP1 PUSH1 0x3 NOT CALLDATASIZE ADD SLT PUSH2 0x7F4 JUMPI DUP2 MLOAD SWAP2 DUP2 DUP5 SLOAD SWAP3 PUSH1 0x1 DUP5 DUP2 SHR SWAP2 DUP2 DUP7 AND SWAP6 DUP7 ISZERO PUSH2 0x7EA JUMPI JUMPDEST PUSH1 0x20 SWAP7 DUP8 DUP6 LT DUP2 EQ PUSH2 0x7D7 JUMPI SWAP1 DUP8 DUP10 SWAP11 SWAP3 DUP7 DUP12 SWAP10 SWAP11 SWAP12 MSTORE SWAP2 DUP3 PUSH1 0x0 EQ PUSH2 0x7AD JUMPI POP POP PUSH1 0x1 EQ PUSH2 0x752 JUMPI JUMPDEST DUP6 DUP9 PUSH2 0x74E DUP10 PUSH2 0x73F DUP5 DUP11 SUB DUP6 PUSH2 0x172C JUMP JUMPDEST MLOAD SWAP3 DUP3 DUP5 SWAP4 DUP5 MSTORE DUP4 ADD SWAP1 PUSH2 0x1647 JUMP JUMPDEST SUB SWAP1 RETURN JUMPDEST DUP2 MSTORE DUP7 SWAP4 POP SWAP2 SWAP1 PUSH32 0x8A35ACFBC15FF81A39AE7D344FD709F28E8600B4AA8C65C6B64BFE7FE36BD19B JUMPDEST DUP3 DUP5 LT PUSH2 0x795 JUMPI POP POP POP DUP3 ADD ADD DUP2 PUSH2 0x73F PUSH2 0x74E DUP9 PUSH2 0x72D JUMP JUMPDEST DUP1 SLOAD DUP5 DUP11 ADD DUP7 ADD MSTORE DUP9 SWAP6 POP DUP8 SWAP5 SWAP1 SWAP4 ADD SWAP3 DUP2 ADD PUSH2 0x77B JUMP JUMPDEST PUSH1 0xFF NOT AND DUP9 DUP3 ADD MSTORE SWAP5 ISZERO ISZERO PUSH1 0x5 SHL DUP8 ADD SWAP1 SWAP5 ADD SWAP5 POP DUP6 SWAP4 POP PUSH2 0x73F SWAP3 POP PUSH2 0x74E SWAP2 POP DUP10 SWAP1 POP PUSH2 0x72D JUMP JUMPDEST PUSH4 0x4E487B71 PUSH1 0xE0 SHL DUP4 MSTORE PUSH1 0x22 DUP11 MSTORE PUSH1 0x24 DUP4 REVERT JUMPDEST SWAP3 PUSH1 0x7F AND SWAP3 PUSH2 0x703 JUMP JUMPDEST DUP1 REVERT JUMPDEST SWAP2 SWAP1 POP CALLVALUE PUSH2 0x2FA JUMPI DUP1 PUSH1 0x3 NOT CALLDATASIZE ADD SLT PUSH2 0x2FA JUMPI PUSH2 0x812 PUSH2 0x162C JUMP JUMPDEST PUSH1 0x24 CALLDATALOAD SWAP3 PUSH2 0x81E PUSH2 0x16CB JUMP JUMPDEST PUSH1 0x2 PUSH1 0x6 SLOAD EQ PUSH2 0x961 JUMPI PUSH1 0x2 PUSH1 0x6 SSTORE DUP5 SWAP2 PUSH1 0x1 PUSH1 0x1 PUSH1 0xA0 SHL SUB SWAP2 SWAP1 DUP3 AND SWAP1 ADDRESS DUP3 EQ PUSH2 0x900 JUMPI JUMPDEST DUP2 PUSH2 0x883 JUMPI POP POP DUP2 DUP1 SWAP4 SWAP5 DUP2 SWAP3 PUSH1 0x5 SLOAD PUSH1 0x8 SHR AND DUP3 DUP3 ISZERO PUSH2 0x87A JUMPI JUMPDEST CALL ISZERO PUSH2 0x870 JUMPI POP JUMPDEST PUSH1 0x1 PUSH1 0x6 SSTORE DUP1 RETURN JUMPDEST MLOAD SWAP1 RETURNDATASIZE SWAP1 DUP3 RETURNDATACOPY RETURNDATASIZE SWAP1 REVERT JUMPDEST POP PUSH2 0x8FC PUSH2 0x860 JUMP JUMPDEST PUSH1 0x20 SWAP4 PUSH1 0x44 SWAP3 SWAP4 PUSH1 0x5 SLOAD PUSH1 0x8 SHR AND SWAP4 DUP7 MLOAD SWAP8 DUP9 SWAP6 DUP7 SWAP5 PUSH4 0xA9059CBB PUSH1 0xE0 SHL DUP7 MSTORE DUP6 ADD MSTORE PUSH1 0x24 DUP5 ADD MSTORE GAS CALL SWAP1 DUP2 ISZERO PUSH2 0x8F7 JUMPI POP PUSH2 0x8C0 JUMPI JUMPDEST POP PUSH2 0x868 JUMP JUMPDEST PUSH1 0x20 DUP2 RETURNDATASIZE DUP3 GT PUSH2 0x8EF JUMPI JUMPDEST DUP2 PUSH2 0x8D8 PUSH1 0x20 SWAP4 DUP4 PUSH2 0x172C JUMP JUMPDEST DUP2 ADD SUB SLT PUSH2 0x259 JUMPI MLOAD DUP1 ISZERO ISZERO SUB PUSH2 0x7F4 JUMPI CODESIZE PUSH2 0x8BA JUMP JUMPDEST RETURNDATASIZE SWAP2 POP PUSH2 0x8CB JUMP JUMPDEST MLOAD RETURNDATASIZE DUP5 DUP3 RETURNDATACOPY RETURNDATASIZE SWAP1 REVERT JUMPDEST SWAP1 SWAP2 SWAP3 POP ADDRESS DUP7 MSTORE DUP6 PUSH1 0x20 MSTORE DUP4 DUP7 KECCAK256 SLOAD DUP6 GT PUSH2 0x91E JUMPI SWAP1 DUP6 SWAP3 SWAP2 PUSH2 0x844 JUMP JUMPDEST PUSH1 0x64 SWAP1 PUSH1 0x20 DUP6 MLOAD SWAP2 PUSH3 0x461BCD PUSH1 0xE5 SHL DUP4 MSTORE DUP3 ADD MSTORE PUSH1 0x18 PUSH1 0x24 DUP3 ADD MSTORE PUSH32 0x43616E6E6F7420776974686472617720636F7265204847540000000000000000 PUSH1 0x44 DUP3 ADD MSTORE REVERT JUMPDEST DUP3 MLOAD PUSH4 0x3EE5AEB5 PUSH1 0xE0 SHL DUP2 MSTORE REVERT JUMPDEST POP POP CALLVALUE PUSH2 0x259 JUMPI DUP2 PUSH1 0x3 NOT CALLDATASIZE ADD SLT PUSH2 0x259 JUMPI PUSH1 0x5 SLOAD SWAP1 MLOAD PUSH1 0x8 SWAP2 SWAP1 SWAP2 SHR PUSH1 0x1 PUSH1 0x1 PUSH1 0xA0 SHL SUB AND DUP2 MSTORE PUSH1 0x20 SWAP1 RETURN JUMPDEST SWAP1 POP CALLVALUE PUSH2 0x2FA JUMPI DUP3 PUSH1 0x3 NOT CALLDATASIZE ADD SLT PUSH2 0x2FA JUMPI PUSH2 0x9B6 PUSH2 0x16CB JUMP JUMPDEST PUSH1 0x14 SLOAD SWAP1 PUSH1 0xFF DUP3 AND PUSH2 0x9FE JUMPI POP PUSH32 0xB3DA2DB3DFC3778F99852546C6E9AB39EC253F9DE7B0847AFEC61BD27878E923 SWAP2 PUSH1 0x1 PUSH1 0x20 SWAP3 PUSH1 0xFF NOT AND OR PUSH1 0x14 SSTORE TIMESTAMP PUSH1 0x9 SSTORE MLOAD TIMESTAMP DUP2 MSTORE LOG1 DUP1 RETURN JUMPDEST PUSH1 0x64 SWAP1 PUSH1 0x20 DUP5 MLOAD SWAP2 PUSH3 0x461BCD PUSH1 0xE5 SHL DUP4 MSTORE DUP3 ADD MSTORE PUSH1 0x17 PUSH1 0x24 DUP3 ADD MSTORE PUSH32 0x54726164696E6720616C726561647920656E61626C6564000000000000000000 PUSH1 0x44 DUP3 ADD MSTORE REVERT JUMPDEST POP POP CALLVALUE PUSH2 0x259 JUMPI DUP2 PUSH1 0x3 NOT CALLDATASIZE ADD SLT PUSH2 0x259 JUMPI PUSH1 0x20 PUSH32 0x62E78CEA01BEE320CD4E420270B5EA74000D11B0C9F74754EBDBFC544B05A258 SWAP2 PUSH2 0xA7F PUSH2 0x16CB JUMP JUMPDEST PUSH2 0xA87 PUSH2 0x1D45 JUMP JUMPDEST PUSH1 0x1 PUSH1 0xFF NOT PUSH1 0x5 SLOAD AND OR PUSH1 0x5 SSTORE MLOAD CALLER DUP2 MSTORE LOG1 DUP1 RETURN JUMPDEST DUP4 SWAP2 POP CALLVALUE PUSH2 0x259 JUMPI DUP3 PUSH1 0x3 NOT CALLDATASIZE ADD SLT PUSH2 0x259 JUMPI PUSH2 0xAB7 PUSH2 0x162C JUMP JUMPDEST SWAP3 PUSH1 0x24 CALLDATALOAD SWAP2 PUSH1 0x1 PUSH1 0x1 PUSH1 0xA0 SHL SUB DUP6 AND CALLER DUP2 EQ ISZERO DUP1 PUSH2 0xB5A JUMPI JUMPDEST PUSH2 0xAE3 JUMPI JUMPDEST DUP5 PUSH2 0xAE0 DUP6 DUP9 PUSH2 0x17E1 JUMP JUMPDEST DUP1 RETURN JUMPDEST DUP5 MSTORE PUSH1 0x1 PUSH1 0x20 MSTORE DUP2 DUP5 KECCAK256 CALLER DUP6 MSTORE PUSH1 0x20 MSTORE DUP2 DUP5 KECCAK256 SLOAD SWAP2 DUP4 DUP4 LT PUSH2 0xB23 JUMPI POP POP SWAP3 PUSH2 0xB1A PUSH2 0xB13 DUP4 PUSH2 0xAE0 SWAP6 SWAP7 PUSH2 0x18A9 JUMP JUMPDEST CALLER DUP4 PUSH2 0x174E JUMP JUMPDEST SWAP3 SWAP2 DUP5 DUP1 PUSH2 0xAD5 JUMP JUMPDEST MLOAD PUSH4 0xDB42144D PUSH1 0xE0 SHL DUP2 MSTORE PUSH1 0x1 PUSH1 0x1 PUSH1 0xA0 SHL SUB SWAP1 SWAP6 AND SWAP1 DUP6 ADD SWAP1 DUP2 MSTORE PUSH1 0x20 DUP2 ADD SWAP3 SWAP1 SWAP3 MSTORE PUSH1 0x40 DUP3 ADD MSTORE DUP3 SWAP2 POP PUSH1 0x60 ADD SUB SWAP1 REVERT JUMPDEST SUB SWAP1 REVERT JUMPDEST POP CALLER DUP6 MSTORE PUSH1 0x12 PUSH1 0x20 MSTORE PUSH1 0xFF DUP4 DUP7 KECCAK256 SLOAD AND ISZERO PUSH2 0xAD0 JUMP JUMPDEST DUP3 DUP5 CALLVALUE PUSH2 0x7F4 JUMPI POP PUSH2 0x74E PUSH2 0xB8D PUSH2 0xB87 CALLDATASIZE PUSH2 0x1687 JUMP JUMPDEST SWAP2 PUSH2 0x1D63 JUMP JUMPDEST DUP4 SWAP3 SWAP2 SWAP3 MLOAD SWAP4 DUP5 SWAP4 ISZERO ISZERO DUP5 MSTORE DUP1 PUSH1 0x20 DUP6 ADD MSTORE DUP4 ADD SWAP1 PUSH2 0x1647 JUMP JUMPDEST POP POP CALLVALUE PUSH2 0x259 JUMPI DUP2 PUSH1 0x3 NOT CALLDATASIZE ADD SLT PUSH2 0x259 JUMPI PUSH1 0x20 SWAP1 PUSH1 0x9 SLOAD SWAP1 MLOAD SWAP1 DUP2 MSTORE RETURN JUMPDEST SWAP2 SWAP1 POP CALLVALUE PUSH2 0x2FA JUMPI DUP1 PUSH1 0x3 NOT CALLDATASIZE ADD SLT PUSH2 0x2FA JUMPI PUSH2 0xBE1 PUSH2 0x162C JUMP JUMPDEST SWAP1 PUSH2 0xBEA PUSH2 0x16BC JUMP JUMPDEST SWAP2 PUSH2 0xBF3 PUSH2 0x16CB JUMP JUMPDEST PUSH1 0x1 PUSH1 0x1 PUSH1 0xA0 SHL SUB AND SWAP3 DUP4 ISZERO PUSH2 0x4EA JUMPI POP PUSH1 0x0 DUP1 MLOAD PUSH1 0x20 PUSH2 0x2046 DUP4 CODECOPY DUP2 MLOAD SWAP2 MSTORE SWAP2 PUSH1 0x3 PUSH1 0x80 SWAP3 DUP6 DUP8 MSTORE PUSH1 0x10 PUSH1 0x20 MSTORE PUSH2 0xC39 DUP4 DUP3 DUP10 KECCAK256 SWAP1 PUSH1 0xFF DUP1 NOT DUP4 SLOAD AND SWAP2 ISZERO ISZERO AND OR SWAP1 SSTORE JUMP JUMPDEST DUP1 MLOAD SWAP3 ISZERO ISZERO DUP4 MSTORE DUP1 PUSH1 0x20 DUP5 ADD MSTORE DUP3 ADD MSTORE PUSH3 0x666565 PUSH1 0xE8 SHL PUSH1 0x60 DUP3 ADD MSTORE LOG2 DUP1 RETURN JUMPDEST DUP4 CALLVALUE PUSH2 0x7F4 JUMPI DUP1 PUSH1 0x3 NOT CALLDATASIZE ADD SLT PUSH2 0x7F4 JUMPI PUSH2 0xC72 PUSH2 0x16CB JUMP JUMPDEST PUSH1 0x5 DUP1 SLOAD PUSH2 0x100 PUSH1 0x1 PUSH1 0xA8 SHL SUB NOT DUP2 AND SWAP1 SWAP2 SSTORE DUP2 SWAP1 PUSH1 0x8 SHR PUSH1 0x1 PUSH1 0x1 PUSH1 0xA0 SHL SUB AND PUSH32 0x8BE0079C531659141344CD1FD0A4F28419497F9722A3DAAFE3B4186F6B6457E0 DUP3 DUP1 LOG3 DUP1 RETURN JUMPDEST POP POP CALLVALUE PUSH2 0x259 JUMPI PUSH1 0x20 CALLDATASIZE PUSH1 0x3 NOT ADD SLT PUSH2 0x259 JUMPI PUSH1 0x20 SWAP2 DUP2 SWAP1 PUSH1 0x1 PUSH1 0x1 PUSH1 0xA0 SHL SUB PUSH2 0xCE2 PUSH2 0x162C JUMP JUMPDEST AND DUP2 MSTORE DUP1 DUP5 MSTORE KECCAK256 SLOAD SWAP1 MLOAD SWAP1 DUP2 MSTORE RETURN JUMPDEST SWAP2 SWAP1 POP CALLVALUE PUSH2 0x2FA JUMPI DUP1 PUSH1 0x3 NOT CALLDATASIZE ADD SLT PUSH2 0x2FA JUMPI PUSH2 0xD0C PUSH2 0x162C JUMP JUMPDEST SWAP1 PUSH2 0xD15 PUSH2 0x16BC JUMP JUMPDEST SWAP2 PUSH2 0xD1E PUSH2 0x16CB JUMP JUMPDEST PUSH1 0x1 PUSH1 0x1 PUSH1 0xA0 SHL SUB AND SWAP3 DUP4 ISZERO PUSH2 0x4EA JUMPI POP PUSH1 0x0 DUP1 MLOAD PUSH1 0x20 PUSH2 0x2046 DUP4 CODECOPY DUP2 MLOAD SWAP2 MSTORE SWAP2 PUSH1 0xA PUSH1 0x80 SWAP3 DUP6 DUP8 MSTORE PUSH1 0x12 PUSH1 0x20 MSTORE PUSH2 0xD64 DUP4 DUP3 DUP10 KECCAK256 SWAP1 PUSH1 0xFF DUP1 NOT DUP4 SLOAD AND SWAP2 ISZERO ISZERO AND OR SWAP1 SSTORE JUMP JUMPDEST DUP1 MLOAD SWAP3 ISZERO ISZERO DUP4 MSTORE DUP1 PUSH1 0x20 DUP5 ADD MSTORE DUP3 ADD MSTORE PUSH10 0x3A3930B739B0B1BA37B9 PUSH1 0xB1 SHL PUSH1 0x60 DUP3 ADD MSTORE LOG2 DUP1 RETURN JUMPDEST POP POP CALLVALUE PUSH2 0x259 JUMPI PUSH1 0x20 CALLDATASIZE PUSH1 0x3 NOT ADD SLT PUSH2 0x259 JUMPI PUSH1 0x20 SWAP2 PUSH1 0xFF SWAP1 DUP3 SWAP1 PUSH1 0x1 PUSH1 0x1 PUSH1 0xA0 SHL SUB PUSH2 0xDB6 PUSH2 0x162C JUMP JUMPDEST AND DUP2 MSTORE PUSH1 0x10 DUP6 MSTORE KECCAK256 SLOAD AND SWAP1 MLOAD SWAP1 ISZERO ISZERO DUP2 MSTORE RETURN JUMPDEST POP POP CALLVALUE PUSH2 0x259 JUMPI DUP2 PUSH1 0x3 NOT CALLDATASIZE ADD SLT PUSH2 0x259 JUMPI PUSH1 0x20 SWAP1 PUSH1 0xFF PUSH1 0x5 SLOAD AND SWAP1 MLOAD SWAP1 ISZERO ISZERO DUP2 MSTORE RETURN JUMPDEST SWAP2 SWAP1 POP CALLVALUE PUSH2 0x2FA JUMPI DUP1 PUSH1 0x3 NOT CALLDATASIZE ADD SLT PUSH2 0x2FA JUMPI DUP2 CALLDATALOAD SWAP2 PUSH8 0xFFFFFFFFFFFFFFFF SWAP2 DUP3 DUP5 GT PUSH2 0x3C9 JUMPI CALLDATASIZE PUSH1 0x23 DUP6 ADD SLT ISZERO PUSH2 0x3C9 JUMPI DUP4 DUP3 ADD CALLDATALOAD SWAP3 DUP4 GT PUSH2 0x3C9 JUMPI PUSH1 0x24 SWAP4 DUP5 DUP2 ADD SWAP1 DUP6 CALLDATASIZE SWAP2 DUP7 PUSH1 0x5 SHL ADD ADD GT PUSH2 0xF5B JUMPI PUSH2 0xE47 PUSH2 0x16BC JUMP JUMPDEST SWAP1 PUSH2 0xE50 PUSH2 0x16CB JUMP JUMPDEST DUP7 JUMPDEST DUP6 DUP2 LT PUSH2 0xE5D JUMPI DUP8 DUP1 RETURN JUMPDEST DUP8 PUSH1 0x1 PUSH1 0x1 PUSH1 0xA0 SHL SUB DUP1 PUSH2 0xE7A PUSH2 0xE75 DUP6 DUP12 DUP9 PUSH2 0x1D0B JUMP JUMPDEST PUSH2 0x1D31 JUMP JUMPDEST AND PUSH2 0xEA5 JUMPI JUMPDEST POP POP PUSH1 0x0 NOT DUP2 EQ PUSH2 0xE93 JUMPI PUSH1 0x1 ADD PUSH2 0xE52 JUMP JUMPDEST PUSH4 0x4E487B71 PUSH1 0xE0 SHL DUP9 MSTORE PUSH1 0x11 DUP6 MSTORE DUP7 DUP9 REVERT JUMPDEST DUP1 PUSH32 0x66E0C23B9AE0BB92A88E9B0985BB7D85FCE062730057312B99A9E243FDE5EE1 SWAP2 PUSH2 0xED6 PUSH2 0xE75 DUP7 DUP13 DUP10 PUSH2 0x1D0B JUMP JUMPDEST AND DUP4 MSTORE DUP6 PUSH2 0xEF8 DUP2 DUP10 PUSH1 0x20 SWAP7 PUSH1 0xB DUP9 MSTORE KECCAK256 SWAP1 PUSH1 0xFF DUP1 NOT DUP4 SLOAD AND SWAP2 ISZERO ISZERO AND OR SWAP1 SSTORE JUMP JUMPDEST PUSH2 0xF1C JUMPI JUMPDEST PUSH2 0xF0B PUSH2 0xE75 DUP6 DUP12 DUP9 PUSH2 0x1D0B JUMP JUMPDEST AND SWAP2 DUP7 MLOAD DUP7 ISZERO ISZERO DUP2 MSTORE LOG2 DUP8 CODESIZE PUSH2 0xE80 JUMP JUMPDEST PUSH2 0xF2A PUSH2 0xE75 DUP6 DUP12 DUP9 PUSH2 0x1D0B JUMP JUMPDEST PUSH32 0x99C293EFE82A3EF3312126AE84D020090DE7008C510CB704C963AC1C3C04E215 DUP5 DUP4 DUP11 MLOAD SWAP4 TIMESTAMP DUP6 MSTORE AND SWAP3 LOG2 PUSH2 0xEFD JUMP JUMPDEST DUP6 DUP1 REVERT JUMPDEST POP POP CALLVALUE PUSH2 0x259 JUMPI DUP2 PUSH1 0x3 NOT CALLDATASIZE ADD SLT PUSH2 0x259 JUMPI PUSH1 0x20 SWAP1 MLOAD PUSH2 0x12C DUP2 MSTORE RETURN JUMPDEST POP POP CALLVALUE PUSH2 0x259 JUMPI DUP2 PUSH1 0x3 NOT CALLDATASIZE ADD SLT PUSH2 0x259 JUMPI PUSH1 0x20 SWAP1 PUSH1 0xFF PUSH1 0x14 SLOAD AND SWAP1 MLOAD SWAP1 ISZERO ISZERO DUP2 MSTORE RETURN JUMPDEST POP POP CALLVALUE PUSH2 0x259 JUMPI DUP2 PUSH1 0x3 NOT CALLDATASIZE ADD SLT PUSH2 0x259 JUMPI PUSH1 0x20 SWAP1 PUSH1 0xC SLOAD SWAP1 MLOAD SWAP1 DUP2 MSTORE RETURN JUMPDEST POP POP CALLVALUE PUSH2 0x259 JUMPI DUP2 PUSH1 0x3 NOT CALLDATASIZE ADD SLT PUSH2 0x259 JUMPI PUSH1 0xF SLOAD SWAP1 MLOAD PUSH1 0x1 PUSH1 0x1 PUSH1 0xA0 SHL SUB SWAP1 SWAP2 AND DUP2 MSTORE PUSH1 0x20 SWAP1 RETURN JUMPDEST SWAP2 SWAP1 POP CALLVALUE PUSH2 0x2FA JUMPI DUP1 PUSH1 0x3 NOT CALLDATASIZE ADD SLT PUSH2 0x2FA JUMPI PUSH2 0x1003 PUSH2 0x162C JUMP JUMPDEST SWAP1 PUSH2 0x100C PUSH2 0x16BC JUMP JUMPDEST SWAP2 PUSH2 0x1015 PUSH2 0x16CB JUMP JUMPDEST PUSH1 0x1 PUSH1 0x1 PUSH1 0xA0 SHL SUB AND SWAP3 DUP4 ISZERO PUSH2 0x4EA JUMPI POP PUSH1 0x0 DUP1 MLOAD PUSH1 0x20 PUSH2 0x2046 DUP4 CODECOPY DUP2 MLOAD SWAP2 MSTORE SWAP2 PUSH1 0x5 PUSH1 0x80 SWAP3 DUP6 DUP8 MSTORE PUSH1 0x11 PUSH1 0x20 MSTORE PUSH2 0x105B DUP4 DUP3 DUP10 KECCAK256 SWAP1 PUSH1 0xFF DUP1 NOT DUP4 SLOAD AND SWAP2 ISZERO ISZERO AND OR SWAP1 SSTORE JUMP JUMPDEST DUP1 MLOAD SWAP3 ISZERO ISZERO DUP4 MSTORE DUP1 PUSH1 0x20 DUP5 ADD MSTORE DUP3 ADD MSTORE PUSH5 0x1B1A5B5A5D PUSH1 0xDA SHL PUSH1 0x60 DUP3 ADD MSTORE LOG2 DUP1 RETURN JUMPDEST DUP4 SWAP1 CALLVALUE PUSH2 0x259 JUMPI PUSH1 0x20 CALLDATASIZE PUSH1 0x3 NOT ADD SLT PUSH2 0x259 JUMPI PUSH2 0xAE0 SWAP1 CALLDATALOAD CALLER PUSH2 0x17E1 JUMP JUMPDEST SWAP2 SWAP1 POP CALLVALUE PUSH2 0x2FA JUMPI DUP1 PUSH1 0x3 NOT CALLDATASIZE ADD SLT PUSH2 0x2FA JUMPI PUSH2 0x10B6 PUSH2 0x162C JUMP JUMPDEST SWAP1 PUSH1 0x24 CALLDATALOAD SWAP2 PUSH2 0x10C3 PUSH2 0x16CB JUMP JUMPDEST PUSH1 0x1 PUSH1 0x1 PUSH1 0xA0 SHL SUB AND SWAP3 DUP4 ISZERO PUSH2 0x4EA JUMPI PUSH1 0x2 SLOAD SWAP1 PUSH12 0x204FCE5E3E25026110000000 DUP1 PUSH2 0x10EF DUP7 DUP6 PUSH2 0x1AEF JUMP JUMPDEST GT PUSH2 0x1150 JUMPI POP POP DUP3 PUSH32 0xDDF252AD1BE2C89B69C2B068FC378DAA952BA7F163C4A11628F55A4DF523B3EF SWAP3 PUSH2 0x1136 DUP8 SWAP6 PUSH1 0x20 SWAP5 PUSH2 0x1129 PUSH2 0x1D45 JUMP JUMPDEST PUSH2 0x1131 PUSH2 0x1D45 JUMP JUMPDEST PUSH2 0x1AEF JUMP JUMPDEST PUSH1 0x2 SSTORE DUP6 DUP6 MSTORE DUP5 DUP4 MSTORE DUP1 DUP6 KECCAK256 DUP3 DUP2 SLOAD ADD SWAP1 SSTORE MLOAD SWAP1 DUP2 MSTORE LOG3 DUP1 RETURN JUMPDEST DUP4 MLOAD PUSH4 0xADC3CEE5 PUSH1 0xE0 SHL DUP2 MSTORE SWAP2 DUP3 ADD DUP6 SWAP1 MSTORE PUSH1 0x24 DUP3 ADD MSTORE PUSH1 0x44 SWAP2 POP REVERT JUMPDEST SWAP1 POP CALLVALUE PUSH2 0x2FA JUMPI DUP3 PUSH1 0x3 NOT CALLDATASIZE ADD SLT PUSH2 0x2FA JUMPI PUSH2 0x1187 PUSH2 0x16CB JUMP JUMPDEST PUSH1 0x5 SLOAD SWAP1 PUSH1 0xFF DUP3 AND ISZERO PUSH2 0x11C9 JUMPI POP PUSH1 0xFF NOT AND PUSH1 0x5 SSTORE MLOAD CALLER DUP2 MSTORE PUSH32 0x5DB9EE0A495BF2E6FF9C91A7834C1BA4FDD244A5E8AA4E537BD38AEAE4B073AA SWAP1 PUSH1 0x20 SWAP1 LOG1 DUP1 RETURN JUMPDEST DUP3 MLOAD PUSH4 0x8DFC202B PUSH1 0xE0 SHL DUP2 MSTORE REVERT JUMPDEST POP POP CALLVALUE PUSH2 0x259 JUMPI PUSH1 0x20 CALLDATASIZE PUSH1 0x3 NOT ADD SLT PUSH2 0x259 JUMPI PUSH1 0x20 SWAP2 PUSH1 0xFF SWAP1 DUP3 SWAP1 PUSH1 0x1 PUSH1 0x1 PUSH1 0xA0 SHL SUB PUSH2 0x1202 PUSH2 0x162C JUMP JUMPDEST AND DUP2 MSTORE PUSH1 0xB DUP6 MSTORE KECCAK256 SLOAD AND SWAP1 MLOAD SWAP1 ISZERO ISZERO DUP2 MSTORE RETURN JUMPDEST POP POP CALLVALUE PUSH2 0x259 JUMPI DUP2 PUSH1 0x3 NOT CALLDATASIZE ADD SLT PUSH2 0x259 JUMPI PUSH1 0x20 SWAP1 MLOAD PUSH1 0x12 DUP2 MSTORE RETURN JUMPDEST POP POP CALLVALUE PUSH2 0x259 JUMPI DUP2 PUSH1 0x3 NOT CALLDATASIZE ADD SLT PUSH2 0x259 JUMPI PUSH1 0x20 SWAP1 PUSH1 0xD SLOAD SWAP1 MLOAD SWAP1 DUP2 MSTORE RETURN JUMPDEST SWAP2 SWAP1 POP CALLVALUE PUSH2 0x2FA JUMPI DUP1 PUSH1 0x3 NOT CALLDATASIZE ADD SLT PUSH2 0x2FA JUMPI PUSH2 0x126B PUSH2 0x162C JUMP JUMPDEST SWAP1 PUSH2 0x1274 PUSH2 0x16BC JUMP JUMPDEST SWAP2 PUSH2 0x127D PUSH2 0x16CB JUMP JUMPDEST PUSH1 0x1 PUSH1 0x1 PUSH1 0xA0 SHL SUB AND SWAP3 DUP4 ISZERO PUSH2 0x4EA JUMPI POP PUSH1 0x0 DUP1 MLOAD PUSH1 0x20 PUSH2 0x2046 DUP4 CODECOPY DUP2 MLOAD SWAP2 MSTORE SWAP2 PUSH1 0x8 PUSH1 0x80 SWAP3 DUP6 DUP8 MSTORE PUSH1 0x13 PUSH1 0x20 MSTORE PUSH2 0x12C3 DUP4 DUP3 DUP10 KECCAK256 SWAP1 PUSH1 0xFF DUP1 NOT DUP4 SLOAD AND SWAP2 ISZERO ISZERO AND OR SWAP1 SSTORE JUMP JUMPDEST DUP1 MLOAD SWAP3 ISZERO ISZERO DUP4 MSTORE DUP1 PUSH1 0x20 DUP5 ADD MSTORE DUP3 ADD MSTORE PUSH8 0x65786368616E6765 PUSH1 0xC0 SHL PUSH1 0x60 DUP3 ADD MSTORE LOG2 DUP1 RETURN JUMPDEST DUP4 SWAP2 POP CALLVALUE PUSH2 0x259 JUMPI PUSH2 0x12F9 CALLDATASIZE PUSH2 0x1687 JUMP JUMPDEST PUSH1 0x1 PUSH1 0x1 PUSH1 0xA0 SHL SUB DUP4 AND DUP1 DUP7 MSTORE PUSH1 0x1 PUSH1 0x20 SWAP1 DUP2 MSTORE DUP8 DUP8 KECCAK256 CALLER DUP9 MSTORE SWAP1 MSTORE DUP7 DUP7 KECCAK256 SLOAD SWAP2 SWAP6 SWAP3 SWAP5 PUSH1 0x0 NOT DUP4 LT PUSH2 0x1335 JUMPI JUMPDEST PUSH1 0x20 DUP9 PUSH2 0x6D2 DUP10 DUP10 DUP10 PUSH2 0x18CC JUMP JUMPDEST DUP7 DUP4 LT PUSH2 0x139D JUMPI DUP2 ISZERO PUSH2 0x1386 JUMPI CALLER ISZERO PUSH2 0x136F JUMPI POP DUP3 MSTORE PUSH1 0x1 PUSH1 0x20 SWAP1 DUP2 MSTORE DUP7 DUP4 KECCAK256 CALLER DUP5 MSTORE DUP2 MSTORE SWAP2 DUP7 SWAP1 KECCAK256 SWAP1 DUP6 SWAP1 SUB SWAP1 SSTORE DUP3 SWAP1 PUSH2 0x6D2 DUP8 PUSH2 0x1327 JUMP JUMPDEST DUP8 MLOAD PUSH4 0x4A1406B1 PUSH1 0xE1 SHL DUP2 MSTORE SWAP1 DUP2 ADD DUP5 SWAP1 MSTORE PUSH1 0x24 SWAP1 REVERT JUMPDEST DUP8 MLOAD PUSH4 0xE602DF05 PUSH1 0xE0 SHL DUP2 MSTORE SWAP1 DUP2 ADD DUP5 SWAP1 MSTORE PUSH1 0x24 SWAP1 REVERT JUMPDEST DUP8 MLOAD PUSH4 0x7DC7A0D9 PUSH1 0xE1 SHL DUP2 MSTORE CALLER SWAP2 DUP2 ADD SWAP2 DUP3 MSTORE PUSH1 0x20 DUP3 ADD SWAP4 SWAP1 SWAP4 MSTORE PUSH1 0x40 DUP2 ADD DUP8 SWAP1 MSTORE DUP3 SWAP2 POP PUSH1 0x60 ADD SUB SWAP1 REVERT JUMPDEST SWAP1 POP CALLVALUE PUSH2 0x2FA JUMPI PUSH1 0x60 CALLDATASIZE PUSH1 0x3 NOT ADD SLT PUSH2 0x2FA JUMPI DUP1 CALLDATALOAD SWAP2 PUSH1 0x24 CALLDATALOAD PUSH1 0x44 CALLDATALOAD SWAP3 PUSH2 0x13EE PUSH2 0x16CB JUMP JUMPDEST PUSH2 0x1F4 DUP1 DUP7 GT DUP1 ISZERO PUSH2 0x14AA JUMPI JUMPDEST DUP1 ISZERO PUSH2 0x14A1 JUMPI JUMPDEST PUSH2 0x144B JUMPI DUP7 PUSH32 0xCF8A1E1D5F09CF3C97DBB653CD9A4D7AACE9292FBC1BB8211FEBF2D400FEBBDD PUSH1 0x60 DUP9 DUP9 DUP9 DUP9 DUP4 PUSH1 0xC SSTORE DUP1 PUSH1 0xD SSTORE DUP3 PUSH1 0xE SSTORE DUP2 MLOAD SWAP4 DUP5 MSTORE PUSH1 0x20 DUP5 ADD MSTORE DUP3 ADD MSTORE LOG1 DUP1 RETURN JUMPDEST DUP4 DUP7 DUP7 DUP10 PUSH1 0x44 SWAP7 DUP1 DUP5 GT PUSH1 0x0 EQ PUSH2 0x1487 JUMPI POP POP DUP1 DUP3 GT ISZERO PUSH2 0x1480 JUMPI POP JUMPDEST SWAP1 JUMPDEST MLOAD PUSH4 0x18731F9B PUSH1 0xE0 SHL DUP2 MSTORE SWAP3 DUP4 ADD MSTORE PUSH1 0x24 DUP3 ADD MSTORE REVERT JUMPDEST SWAP1 POP PUSH2 0x1468 JUMP JUMPDEST SWAP3 POP POP DUP1 DUP3 GT ISZERO PUSH2 0x149A JUMPI POP JUMPDEST SWAP1 PUSH2 0x146A JUMP JUMPDEST SWAP1 POP PUSH2 0x1494 JUMP JUMPDEST POP DUP1 DUP6 GT PUSH2 0x1402 JUMP JUMPDEST POP DUP1 DUP4 GT PUSH2 0x13FB JUMP JUMPDEST POP POP CALLVALUE PUSH2 0x259 JUMPI DUP2 PUSH1 0x3 NOT CALLDATASIZE ADD SLT PUSH2 0x259 JUMPI PUSH1 0x20 SWAP1 PUSH1 0x2 SLOAD SWAP1 MLOAD SWAP1 DUP2 MSTORE RETURN JUMPDEST POP POP CALLVALUE PUSH2 0x259 JUMPI DUP1 PUSH1 0x3 NOT CALLDATASIZE ADD SLT PUSH2 0x259 JUMPI PUSH1 0x20 SWAP1 PUSH2 0x6D2 PUSH2 0x14F2 PUSH2 0x162C JUMP JUMPDEST PUSH1 0x24 CALLDATALOAD SWAP1 CALLER PUSH2 0x174E JUMP JUMPDEST DUP3 DUP5 CALLVALUE PUSH2 0x7F4 JUMPI DUP1 PUSH1 0x3 NOT CALLDATASIZE ADD SLT PUSH2 0x7F4 JUMPI DUP2 MLOAD SWAP2 DUP2 PUSH1 0x3 SLOAD SWAP3 PUSH1 0x1 DUP5 DUP2 SHR SWAP2 DUP2 DUP7 AND SWAP6 DUP7 ISZERO PUSH2 0x15E7 JUMPI JUMPDEST PUSH1 0x20 SWAP7 DUP8 DUP6 LT DUP2 EQ PUSH2 0x7D7 JUMPI DUP9 SWAP10 POP SWAP7 DUP9 SWAP7 SWAP8 DUP6 DUP3 SWAP11 MSTORE SWAP2 DUP3 PUSH1 0x0 EQ PUSH2 0x15C0 JUMPI POP POP PUSH1 0x1 EQ PUSH2 0x1564 JUMPI JUMPDEST POP POP POP PUSH2 0x74E SWAP3 SWAP2 PUSH2 0x73F SWAP2 SUB DUP6 PUSH2 0x172C JUMP JUMPDEST SWAP2 SWAP1 DUP7 SWAP4 POP PUSH1 0x3 DUP4 MSTORE PUSH32 0xC2575A0E9E593C00F959F8C92F12DB2869C3395A3B0502D05E2516446F71F85B JUMPDEST DUP3 DUP5 LT PUSH2 0x15A8 JUMPI POP POP POP DUP3 ADD ADD DUP2 PUSH2 0x73F PUSH2 0x74E PUSH2 0x1551 JUMP JUMPDEST DUP1 SLOAD DUP5 DUP11 ADD DUP7 ADD MSTORE DUP9 SWAP6 POP DUP8 SWAP5 SWAP1 SWAP4 ADD SWAP3 DUP2 ADD PUSH2 0x158F JUMP JUMPDEST PUSH1 0xFF NOT AND DUP8 DUP3 ADD MSTORE SWAP4 ISZERO ISZERO PUSH1 0x5 SHL DUP7 ADD SWAP1 SWAP4 ADD SWAP4 POP DUP5 SWAP3 POP PUSH2 0x73F SWAP2 POP PUSH2 0x74E SWAP1 POP PUSH2 0x1551 JUMP JUMPDEST SWAP3 PUSH1 0x7F AND SWAP3 PUSH2 0x1527 JUMP JUMPDEST DUP5 SWAP1 DUP5 CALLVALUE PUSH2 0x2FA JUMPI PUSH1 0x20 CALLDATASIZE PUSH1 0x3 NOT ADD SLT PUSH2 0x2FA JUMPI PUSH1 0x20 SWAP3 PUSH1 0xFF SWAP2 SWAP1 PUSH1 0x1 PUSH1 0x1 PUSH1 0xA0 SHL SUB PUSH2 0x161C PUSH2 0x162C JUMP JUMPDEST AND DUP2 MSTORE PUSH1 0x13 DUP6 MSTORE KECCAK256 SLOAD AND ISZERO ISZERO DUP2 MSTORE RETURN JUMPDEST PUSH1 0x4 CALLDATALOAD SWAP1 PUSH1 0x1 PUSH1 0x1 PUSH1 0xA0 SHL SUB DUP3 AND DUP3 SUB PUSH2 0x1642 JUMPI JUMP JUMPDEST PUSH1 0x0 DUP1 REVERT JUMPDEST SWAP2 SWAP1 DUP3 MLOAD SWAP3 DUP4 DUP3 MSTORE PUSH1 0x0 JUMPDEST DUP5 DUP2 LT PUSH2 0x1673 JUMPI POP POP DUP3 PUSH1 0x0 PUSH1 0x20 DUP1 SWAP5 SWAP6 DUP5 ADD ADD MSTORE PUSH1 0x1F DUP1 NOT SWAP2 ADD AND ADD ADD SWAP1 JUMP JUMPDEST PUSH1 0x20 DUP2 DUP4 ADD DUP2 ADD MLOAD DUP5 DUP4 ADD DUP3 ADD MSTORE ADD PUSH2 0x1652 JUMP JUMPDEST PUSH1 0x60 SWAP1 PUSH1 0x3 NOT ADD SLT PUSH2 0x1642 JUMPI PUSH1 0x1 PUSH1 0x1 PUSH1 0xA0 SHL SUB SWAP1 PUSH1 0x4 CALLDATALOAD DUP3 DUP2 AND DUP2 SUB PUSH2 0x1642 JUMPI SWAP2 PUSH1 0x24 CALLDATALOAD SWAP1 DUP2 AND DUP2 SUB PUSH2 0x1642 JUMPI SWAP1 PUSH1 0x44 CALLDATALOAD SWAP1 JUMP JUMPDEST PUSH1 0x24 CALLDATALOAD SWAP1 DUP2 ISZERO ISZERO DUP3 SUB PUSH2 0x1642 JUMPI JUMP JUMPDEST PUSH1 0x5 SLOAD PUSH1 0x8 SHR PUSH1 0x1 PUSH1 0x1 PUSH1 0xA0 SHL SUB AND CALLER SUB PUSH2 0x16E2 JUMPI JUMP JUMPDEST PUSH1 0x40 MLOAD PUSH4 0x118CDAA7 PUSH1 0xE0 SHL DUP2 MSTORE CALLER PUSH1 0x4 DUP3 ADD MSTORE PUSH1 0x24 SWAP1 REVERT JUMPDEST PUSH1 0x40 DUP2 ADD SWAP1 DUP2 LT PUSH8 0xFFFFFFFFFFFFFFFF DUP3 GT OR PUSH2 0x1716 JUMPI PUSH1 0x40 MSTORE JUMP JUMPDEST PUSH4 0x4E487B71 PUSH1 0xE0 SHL PUSH1 0x0 MSTORE PUSH1 0x41 PUSH1 0x4 MSTORE PUSH1 0x24 PUSH1 0x0 REVERT JUMPDEST SWAP1 PUSH1 0x1F DUP1 NOT SWAP2 ADD AND DUP2 ADD SWAP1 DUP2 LT PUSH8 0xFFFFFFFFFFFFFFFF DUP3 GT OR PUSH2 0x1716 JUMPI PUSH1 0x40 MSTORE JUMP JUMPDEST PUSH1 0x1 PUSH1 0x1 PUSH1 0xA0 SHL SUB SWAP1 DUP2 AND SWAP2 DUP3 ISZERO PUSH2 0x17C8 JUMPI AND SWAP2 DUP3 ISZERO PUSH2 0x17AF JUMPI PUSH1 0x20 PUSH32 0x8C5BE1E5EBEC7D5BD14F71427D1E84F3DD0314C0F7B2291E5B200AC8C7C3B925 SWAP2 DUP4 PUSH1 0x0 MSTORE PUSH1 0x1 DUP3 MSTORE PUSH1 0x40 PUSH1 0x0 KECCAK256 DUP6 PUSH1 0x0 MSTORE DUP3 MSTORE DUP1 PUSH1 0x40 PUSH1 0x0 KECCAK256 SSTORE PUSH1 0x40 MLOAD SWAP1 DUP2 MSTORE LOG3 JUMP JUMPDEST PUSH1 0x40 MLOAD PUSH4 0x4A1406B1 PUSH1 0xE1 SHL DUP2 MSTORE PUSH1 0x0 PUSH1 0x4 DUP3 ADD MSTORE PUSH1 0x24 SWAP1 REVERT JUMPDEST PUSH1 0x40 MLOAD PUSH4 0xE602DF05 PUSH1 0xE0 SHL DUP2 MSTORE PUSH1 0x0 PUSH1 0x4 DUP3 ADD MSTORE PUSH1 0x24 SWAP1 REVERT JUMPDEST SWAP1 PUSH1 0x1 PUSH1 0x1 PUSH1 0xA0 SHL SUB DUP3 AND SWAP1 DUP2 ISZERO PUSH2 0x1890 JUMPI PUSH2 0x17FB PUSH2 0x1D45 JUMP JUMPDEST PUSH2 0x1803 PUSH2 0x1D45 JUMP JUMPDEST PUSH1 0x0 SWAP3 DUP3 DUP5 MSTORE DUP4 PUSH1 0x20 MSTORE PUSH1 0x40 DUP5 KECCAK256 SLOAD SWAP1 DUP3 DUP3 LT PUSH2 0x185E JUMPI POP DUP2 PUSH32 0xDDF252AD1BE2C89B69C2B068FC378DAA952BA7F163C4A11628F55A4DF523B3EF SWAP3 PUSH1 0x20 SWAP3 DUP6 DUP8 MSTORE DUP7 DUP5 MSTORE SUB PUSH1 0x40 DUP7 KECCAK256 SSTORE DUP1 PUSH1 0x2 SLOAD SUB PUSH1 0x2 SSTORE PUSH1 0x40 MLOAD SWAP1 DUP2 MSTORE LOG3 JUMP JUMPDEST PUSH1 0x40 MLOAD PUSH4 0x391434E3 PUSH1 0xE2 SHL DUP2 MSTORE PUSH1 0x1 PUSH1 0x1 PUSH1 0xA0 SHL SUB SWAP2 SWAP1 SWAP2 AND PUSH1 0x4 DUP3 ADD MSTORE PUSH1 0x24 DUP2 ADD SWAP2 SWAP1 SWAP2 MSTORE PUSH1 0x44 DUP2 ADD DUP3 SWAP1 MSTORE PUSH1 0x64 SWAP1 REVERT JUMPDEST PUSH1 0x40 MLOAD PUSH4 0x4B637E8F PUSH1 0xE1 SHL DUP2 MSTORE PUSH1 0x0 PUSH1 0x4 DUP3 ADD MSTORE PUSH1 0x24 SWAP1 REVERT JUMPDEST SWAP2 SWAP1 DUP3 SUB SWAP2 DUP3 GT PUSH2 0x18B6 JUMPI JUMP JUMPDEST PUSH4 0x4E487B71 PUSH1 0xE0 SHL PUSH1 0x0 MSTORE PUSH1 0x11 PUSH1 0x4 MSTORE PUSH1 0x24 PUSH1 0x0 REVERT JUMPDEST SWAP2 SWAP1 PUSH1 0x1 PUSH1 0x1 PUSH1 0xA0 SHL SUB SWAP1 DUP2 DUP5 AND DUP1 ISZERO DUP1 ISZERO PUSH2 0x1A10 JUMPI JUMPDEST PUSH2 0x19FE JUMPI PUSH2 0x18F2 DUP5 DUP4 DUP8 PUSH2 0x1AFC JUMP JUMPDEST PUSH1 0x0 SWAP5 DUP2 DUP7 MSTORE PUSH1 0xB PUSH1 0x20 MSTORE PUSH1 0x40 SWAP5 PUSH1 0xFF DUP7 DUP9 KECCAK256 SLOAD AND DUP1 ISZERO PUSH2 0x19EC JUMPI JUMPDEST PUSH2 0x19D4 JUMPI PUSH1 0x9 SLOAD PUSH2 0x12C DUP2 ADD DUP1 SWAP2 GT PUSH2 0x19C0 JUMPI TIMESTAMP LT PUSH2 0x1984 JUMPI JUMPDEST PUSH2 0x1932 DUP5 DUP4 PUSH2 0x1BFB JUMP JUMPDEST PUSH2 0x1951 PUSH2 0x194A PUSH2 0x1943 DUP4 DUP8 DUP7 PUSH2 0x1C5E JUMP JUMPDEST DUP1 SWAP4 PUSH2 0x18A9 JUMP JUMPDEST DUP6 DUP5 PUSH2 0x1A1A JUMP JUMPDEST DUP1 PUSH2 0x196E JUMPI JUMPDEST POP POP DUP5 MSTORE PUSH1 0xA PUSH1 0x20 MSTORE NUMBER DUP4 DUP6 KECCAK256 SSTORE AND DUP3 MSTORE NUMBER SWAP2 KECCAK256 SSTORE JUMP JUMPDEST PUSH2 0x197D SWAP2 DUP6 PUSH1 0xF SLOAD AND SWAP1 PUSH2 0x1A1A JUMP JUMPDEST CODESIZE DUP1 PUSH2 0x1957 JUMP JUMPDEST DUP3 DUP8 MSTORE PUSH1 0xA PUSH1 0x20 MSTORE DUP6 DUP8 KECCAK256 SLOAD NUMBER EQ DUP1 ISZERO PUSH2 0x19AF JUMPI JUMPDEST ISZERO PUSH2 0x1928 JUMPI DUP6 MLOAD PUSH4 0xDB516BC7 PUSH1 0xE0 SHL DUP2 MSTORE PUSH1 0x4 SWAP1 REVERT JUMPDEST POP DUP5 DUP5 AND DUP8 MSTORE NUMBER DUP7 DUP9 KECCAK256 SLOAD EQ PUSH2 0x1999 JUMP JUMPDEST PUSH4 0x4E487B71 PUSH1 0xE0 SHL DUP9 MSTORE PUSH1 0x11 PUSH1 0x4 MSTORE PUSH1 0x24 DUP9 REVERT JUMPDEST DUP6 MLOAD PUSH4 0x5AEB45AB PUSH1 0xE1 SHL DUP2 MSTORE PUSH1 0x4 DUP2 ADD DUP5 SWAP1 MSTORE PUSH1 0x24 SWAP1 REVERT JUMPDEST POP DUP5 DUP5 AND DUP8 MSTORE PUSH1 0xFF DUP7 DUP9 KECCAK256 SLOAD AND PUSH2 0x190E JUMP JUMPDEST PUSH1 0x40 MLOAD PUSH4 0xD92E233D PUSH1 0xE0 SHL DUP2 MSTORE PUSH1 0x4 SWAP1 REVERT JUMPDEST POP DUP3 DUP3 AND ISZERO PUSH2 0x18E3 JUMP JUMPDEST SWAP2 PUSH1 0x1 PUSH1 0x1 PUSH1 0xA0 SHL SUB DUP1 DUP5 AND SWAP3 DUP4 ISZERO PUSH2 0x1890 JUMPI AND SWAP3 DUP4 ISZERO PUSH2 0x1AD6 JUMPI PUSH2 0x1A3D PUSH2 0x1D45 JUMP JUMPDEST PUSH2 0x1A45 PUSH2 0x1D45 JUMP JUMPDEST PUSH1 0x0 SWAP1 DUP4 DUP3 MSTORE DUP2 PUSH1 0x20 MSTORE PUSH1 0x40 DUP3 KECCAK256 SLOAD SWAP1 DUP4 DUP3 LT PUSH2 0x1AA4 JUMPI POP SWAP2 PUSH1 0x40 DUP3 DUP3 PUSH32 0xDDF252AD1BE2C89B69C2B068FC378DAA952BA7F163C4A11628F55A4DF523B3EF SWAP6 DUP8 PUSH1 0x20 SWAP7 MSTORE DUP3 DUP7 MSTORE SUB DUP3 DUP3 KECCAK256 SSTORE DUP7 DUP2 MSTORE KECCAK256 DUP2 DUP2 SLOAD ADD SWAP1 SSTORE PUSH1 0x40 MLOAD SWAP1 DUP2 MSTORE LOG3 JUMP JUMPDEST PUSH1 0x40 MLOAD PUSH4 0x391434E3 PUSH1 0xE2 SHL DUP2 MSTORE PUSH1 0x1 PUSH1 0x1 PUSH1 0xA0 SHL SUB SWAP2 SWAP1 SWAP2 AND PUSH1 0x4 DUP3 ADD MSTORE PUSH1 0x24 DUP2 ADD SWAP2 SWAP1 SWAP2 MSTORE PUSH1 0x44 DUP2 ADD DUP4 SWAP1 MSTORE PUSH1 0x64 SWAP1 REVERT JUMPDEST PUSH1 0x40 MLOAD PUSH4 0xEC442F05 PUSH1 0xE0 SHL DUP2 MSTORE PUSH1 0x0 PUSH1 0x4 DUP3 ADD MSTORE PUSH1 0x24 SWAP1 REVERT JUMPDEST SWAP2 SWAP1 DUP3 ADD DUP1 SWAP3 GT PUSH2 0x18B6 JUMPI JUMP JUMPDEST PUSH1 0x1 PUSH1 0x1 PUSH1 0xA0 SHL SUB SWAP1 DUP2 AND PUSH1 0x0 DUP2 DUP2 MSTORE PUSH1 0x11 PUSH1 0x20 MSTORE PUSH1 0x40 DUP1 DUP3 KECCAK256 SLOAD SWAP1 SWAP6 SWAP4 SWAP2 SWAP3 SWAP1 PUSH1 0xFF AND DUP1 ISZERO PUSH2 0x1BE9 JUMPI JUMPDEST PUSH2 0x1BE1 JUMPI PUSH1 0x8 SLOAD DUP1 DUP6 GT PUSH2 0x1BC5 JUMPI POP DUP3 MSTORE PUSH1 0x13 PUSH1 0x20 MSTORE PUSH1 0xFF DUP6 DUP4 KECCAK256 SLOAD AND ISZERO DUP1 PUSH2 0x1BA5 JUMPI JUMPDEST PUSH2 0x1B56 JUMPI POP POP POP POP POP JUMP JUMPDEST SWAP2 DUP5 PUSH2 0x1B6F SWAP3 PUSH2 0xB56 SWAP5 DUP7 AND DUP2 MSTORE DUP1 PUSH1 0x20 MSTORE KECCAK256 SLOAD PUSH2 0x1AEF JUMP JUMPDEST PUSH1 0x7 SLOAD SWAP4 MLOAD PUSH4 0x65242065 PUSH1 0xE0 SHL DUP2 MSTORE PUSH1 0x1 PUSH1 0x1 PUSH1 0xA0 SHL SUB SWAP1 SWAP4 AND PUSH1 0x4 DUP5 ADD MSTORE PUSH1 0x24 DUP4 ADD MSTORE PUSH1 0x44 DUP3 ADD SWAP3 SWAP1 SWAP3 MSTORE SWAP1 DUP2 SWAP1 PUSH1 0x64 DUP3 ADD SWAP1 JUMP JUMPDEST POP DUP1 DUP5 AND DUP3 MSTORE DUP2 PUSH1 0x20 MSTORE PUSH2 0x1BBC DUP4 DUP7 DUP5 KECCAK256 SLOAD PUSH2 0x1AEF JUMP JUMPDEST PUSH1 0x7 SLOAD LT PUSH2 0x1B4B JUMP JUMPDEST DUP5 PUSH1 0x44 SWAP2 DUP9 MLOAD SWAP2 PUSH3 0x107F43 PUSH1 0xE3 SHL DUP4 MSTORE PUSH1 0x4 DUP4 ADD MSTORE PUSH1 0x24 DUP3 ADD MSTORE REVERT JUMPDEST POP POP POP POP POP POP JUMP JUMPDEST POP DUP2 DUP6 AND DUP4 MSTORE PUSH1 0xFF DUP7 DUP5 KECCAK256 SLOAD AND PUSH2 0x1B27 JUMP JUMPDEST PUSH1 0x1 PUSH1 0x1 PUSH1 0xA0 SHL SUB SWAP1 DUP2 AND PUSH1 0x0 SWAP1 DUP2 MSTORE PUSH1 0x12 PUSH1 0x20 MSTORE PUSH1 0x40 SWAP1 KECCAK256 SLOAD PUSH1 0xFF AND SWAP2 DUP3 ISZERO PUSH2 0x1C47 JUMPI JUMPDEST POP POP PUSH2 0x1C45 JUMPI PUSH1 0xFF PUSH1 0x14 SLOAD AND ISZERO PUSH2 0x1C33 JUMPI JUMP JUMPDEST PUSH1 0x40 MLOAD PUSH4 0x12F1F923 PUSH1 0xE0 SHL DUP2 MSTORE PUSH1 0x4 SWAP1 REVERT JUMPDEST JUMP JUMPDEST SWAP1 SWAP2 POP AND PUSH1 0x0 MSTORE PUSH1 0xFF PUSH1 0x40 PUSH1 0x0 KECCAK256 SLOAD AND CODESIZE DUP1 PUSH2 0x1C20 JUMP JUMPDEST PUSH1 0x1 DUP1 PUSH1 0xA0 SHL SUB DUP1 SWAP2 AND SWAP1 PUSH1 0x0 SWAP3 DUP3 DUP5 MSTORE PUSH1 0x10 PUSH1 0x20 MSTORE PUSH1 0xFF PUSH1 0x40 DUP6 KECCAK256 SLOAD AND DUP1 ISZERO PUSH2 0x1CF8 JUMPI JUMPDEST PUSH2 0x1CF0 JUMPI AND DUP3 MSTORE PUSH1 0x13 PUSH1 0x20 MSTORE PUSH1 0x40 DUP3 KECCAK256 SLOAD PUSH1 0xFF AND ISZERO PUSH2 0x1CCF JUMPI POP PUSH1 0xC SLOAD SWAP2 JUMPDEST DUP3 DUP2 MUL SWAP3 DUP2 DUP5 DIV EQ SWAP1 ISZERO OR ISZERO PUSH2 0x1CBB JUMPI POP PUSH2 0x2710 SWAP1 DIV SWAP1 JUMP JUMPDEST PUSH4 0x4E487B71 PUSH1 0xE0 SHL DUP2 MSTORE PUSH1 0x11 PUSH1 0x4 MSTORE PUSH1 0x24 SWAP1 REVERT JUMPDEST DUP2 MSTORE PUSH1 0x40 DUP2 KECCAK256 SLOAD PUSH1 0xFF AND ISZERO PUSH2 0x1CE7 JUMPI PUSH1 0xD SLOAD SWAP2 PUSH2 0x1CA2 JUMP JUMPDEST PUSH1 0xE SLOAD SWAP2 PUSH2 0x1CA2 JUMP JUMPDEST POP POP POP SWAP1 POP SWAP1 JUMP JUMPDEST POP DUP2 DUP2 AND DUP5 MSTORE PUSH1 0xFF PUSH1 0x40 DUP6 KECCAK256 SLOAD AND PUSH2 0x1C83 JUMP JUMPDEST SWAP2 SWAP1 DUP2 LT ISZERO PUSH2 0x1D1B JUMPI PUSH1 0x5 SHL ADD SWAP1 JUMP JUMPDEST PUSH4 0x4E487B71 PUSH1 0xE0 SHL PUSH1 0x0 MSTORE PUSH1 0x32 PUSH1 0x4 MSTORE PUSH1 0x24 PUSH1 0x0 REVERT JUMPDEST CALLDATALOAD PUSH1 0x1 PUSH1 0x1 PUSH1 0xA0 SHL SUB DUP2 AND DUP2 SUB PUSH2 0x1642 JUMPI SWAP1 JUMP JUMPDEST PUSH1 0xFF PUSH1 0x5 SLOAD AND PUSH2 0x1D51 JUMPI JUMP JUMPDEST PUSH1 0x40 MLOAD PUSH4 0xD93C0665 PUSH1 0xE0 SHL DUP2 MSTORE PUSH1 0x4 SWAP1 REVERT JUMPDEST SWAP1 SWAP3 SWAP2 PUSH1 0x1 DUP1 PUSH1 0xA0 SHL SUB DUP1 SWAP3 AND SWAP1 PUSH1 0x0 SWAP2 DUP1 DUP4 MSTORE PUSH1 0x20 SWAP4 PUSH1 0xB DUP6 MSTORE PUSH1 0xFF SWAP1 PUSH1 0x40 SWAP8 DUP3 DUP10 DUP8 KECCAK256 SLOAD AND DUP1 ISZERO PUSH2 0x2034 JUMPI JUMPDEST PUSH2 0x2008 JUMPI DUP3 PUSH1 0x14 SLOAD AND ISZERO DUP1 PUSH2 0x1FF4 JUMPI JUMPDEST DUP1 PUSH2 0x1FDE JUMPI JUMPDEST PUSH2 0x1FB5 JUMPI DUP4 DUP7 MSTORE PUSH1 0x11 DUP8 MSTORE DUP3 DUP10 DUP8 KECCAK256 SLOAD AND ISZERO DUP1 PUSH2 0x1FA3 JUMPI JUMPDEST DUP1 PUSH2 0x1F98 JUMPI JUMPDEST PUSH2 0x1F5B JUMPI AND SWAP3 DUP4 DUP6 MSTORE PUSH1 0x11 DUP7 MSTORE DUP2 DUP9 DUP7 KECCAK256 SLOAD AND ISZERO SWAP2 DUP3 PUSH2 0x1F46 JUMPI JUMPDEST POP DUP2 PUSH2 0x1F28 JUMPI JUMPDEST POP PUSH2 0x1EEE JUMPI PUSH1 0x9 SLOAD PUSH2 0x12C DUP2 ADD DUP1 SWAP2 GT PUSH2 0x1EDA JUMPI TIMESTAMP LT PUSH2 0x1E34 JUMPI JUMPDEST POP POP POP PUSH19 0x151C985B9CD858DD1A5BDB88185B1B1BDDD959 PUSH1 0x6A SHL PUSH1 0x1 SWAP4 MLOAD SWAP2 PUSH2 0x1E2A DUP4 PUSH2 0x16FA JUMP JUMPDEST PUSH1 0x13 DUP4 MSTORE DUP3 ADD MSTORE SWAP1 JUMP JUMPDEST DUP3 MSTORE PUSH1 0xA DUP4 MSTORE DUP5 DUP3 KECCAK256 SLOAD NUMBER EQ SWAP1 DUP2 ISZERO PUSH2 0x1ECB JUMPI JUMPDEST POP PUSH2 0x1E54 JUMPI DUP1 DUP1 PUSH2 0x1E02 JUMP JUMPDEST DUP4 MLOAD SWAP1 SWAP4 SWAP1 SWAP2 PUSH1 0x60 DUP4 ADD DUP6 PUSH8 0xFFFFFFFFFFFFFFFF DUP3 GT DUP6 DUP4 LT OR PUSH2 0x1EB7 JUMPI POP DUP3 MSTORE PUSH1 0x2E DUP4 MSTORE PUSH32 0x53616D6520626C6F636B207472616E73616374696F6E20647572696E6720736E SWAP1 DUP4 ADD MSTORE PUSH14 0x34B83290383937BA32B1BA34B7B7 PUSH1 0x91 SHL SWAP1 DUP3 ADD MSTORE SWAP1 JUMP JUMPDEST PUSH4 0x4E487B71 PUSH1 0xE0 SHL DUP2 MSTORE PUSH1 0x41 PUSH1 0x4 MSTORE PUSH1 0x24 SWAP1 REVERT JUMPDEST DUP3 MSTORE POP DUP4 DUP2 KECCAK256 SLOAD NUMBER EQ CODESIZE PUSH2 0x1E48 JUMP JUMPDEST PUSH4 0x4E487B71 PUSH1 0xE0 SHL DUP5 MSTORE PUSH1 0x11 PUSH1 0x4 MSTORE PUSH1 0x24 DUP5 REVERT JUMPDEST POP POP PUSH32 0x45786365656473206D61782077616C6C657420616D6F756E7400000000000000 SWAP1 SWAP4 MLOAD SWAP2 PUSH2 0x1F1E DUP4 PUSH2 0x16FA JUMP JUMPDEST PUSH1 0x19 DUP4 MSTORE DUP3 ADD MSTORE SWAP1 JUMP JUMPDEST PUSH2 0x1F3C SWAP2 POP DUP4 DUP6 MSTORE DUP5 DUP7 MSTORE DUP8 DUP6 KECCAK256 SLOAD PUSH2 0x1AEF JUMP JUMPDEST PUSH1 0x7 SLOAD LT CODESIZE PUSH2 0x1DE7 JUMP JUMPDEST DUP4 DUP7 MSTORE PUSH1 0x13 DUP8 MSTORE DUP9 DUP7 KECCAK256 SLOAD AND ISZERO SWAP2 POP CODESIZE PUSH2 0x1DE0 JUMP JUMPDEST POP POP POP POP POP PUSH32 0x45786365656473206D6178207472616E73616374696F6E20616D6F756E740000 SWAP1 SWAP4 MLOAD SWAP2 PUSH2 0x1F8E DUP4 PUSH2 0x16FA JUMP JUMPDEST PUSH1 0x1E DUP4 MSTORE DUP3 ADD MSTORE SWAP1 JUMP JUMPDEST POP PUSH1 0x8 SLOAD DUP6 GT PUSH2 0x1DC5 JUMP JUMPDEST POP DUP2 DUP2 AND DUP7 MSTORE DUP3 DUP10 DUP8 KECCAK256 SLOAD AND ISZERO PUSH2 0x1DBF JUMP JUMPDEST POP POP POP POP POP PUSH19 0x151C98591A5B99C81B9BDD08195B98589B1959 PUSH1 0x6A SHL SWAP1 SWAP4 MLOAD SWAP2 PUSH2 0x1E2A DUP4 PUSH2 0x16FA JUMP JUMPDEST POP DUP2 DUP2 AND DUP7 MSTORE PUSH1 0x12 DUP8 MSTORE DUP3 DUP10 DUP8 KECCAK256 SLOAD AND ISZERO PUSH2 0x1DA7 JUMP JUMPDEST POP DUP4 DUP7 MSTORE PUSH1 0x12 DUP8 MSTORE DUP3 DUP10 DUP8 KECCAK256 SLOAD AND ISZERO PUSH2 0x1DA1 JUMP JUMPDEST POP POP POP POP POP PUSH12 0x109BDD0819195D1958DD1959 PUSH1 0xA2 SHL SWAP1 SWAP4 MLOAD SWAP2 PUSH2 0x202A DUP4 PUSH2 0x16FA JUMP JUMPDEST PUSH1 0xC DUP4 MSTORE DUP3 ADD MSTORE SWAP1 JUMP JUMPDEST POP DUP2 DUP2 AND DUP7 MSTORE DUP3 DUP10 DUP8 KECCAK256 SLOAD AND PUSH2 0x1D91 JUMP INVALID PUSH5 0xCBD745C29F 0x5D 0xC2 0xE3 PUSH16 0x8DF54B03E091E8D9BA4F3E2CD69A90B5 SWAP6 PUSH0 PUSH18 0xB5279EA2646970667358221220551ACE6625 PUSH4 0x43CFE81B 0xDB BLOCKHASH GT 0xDB DUP9 DUP10 0xB9 PREVRANDAO 0xD SLOAD DUP4 PUSH24 0xD77DE56BCE4EDE29BD1B64736F6C63430008140033000000 "},"methodIdentifiers":{"SNIPE_PROTECTION_DURATION()":"541fcfc8","allowance(address,address)":"dd62ed3e","approve(address,uint256)":"095ea7b3","balanceOf(address)":"70a08231","burn(uint256)":"42966c68","burnFrom(address,uint256)":"79cc6790","buyFee()":"47062402","canTransact(address,address,uint256)":"79b40d63","decimals()":"313ce567","emergencyWithdraw(address,uint256)":"95ccea67","enableTrading()":"8a8c523c","feeRecipient()":"46904840","getTokenInfo()":"abb1dc44","isAuthorizedTransactor(address)":"f6e1bfd8","isBot(address)":"3bbac579","isExchange(address)":"0036d2d3","isExemptFromFees(address)":"60fd0989","isExemptFromLimits(address)":"cd2c6a99","launchTime()":"790ca413","maxTransactionAmount()":"c8c8ebe4","maxWalletAmount()":"aa4bde28","mint(address,uint256)":"40c10f19","name()":"06fdde03","owner()":"8da5cb5b","pause()":"8456cb59","paused()":"5c975abb","renounceOwnership()":"715018a6","sellFee()":"2b14ca56","setAuthorizedTransactor(address,bool)":"65a0f021","setBotStatus(address,bool)":"b3d618db","setBotStatusBatch(address[],bool)":"5582b4ab","setExchangeStatus(address,bool)":"24fff6c9","setFeeExemption(address,bool)":"751fd179","setLimitExemption(address,bool)":"4463c1b2","symbol()":"95d89b41","totalSupply()":"18160ddd","tradingEnabled()":"4ada218b","transfer(address,uint256)":"a9059cbb","transferFee()":"acb2ad6f","transferFrom(address,address,uint256)":"23b872dd","transferOwnership(address)":"f2fde38b","unpause()":"3f4ba83a","updateAntiWhaleConfig(uint256,uint256)":"a9b06fa7","updateFeeRecipient(address)":"f160d369","updateFees(uint256,uint256,uint256)":"22429085"}}}}}